{
  "address": "0x48d06154a35228FC64d735E5FB5290605e9f674e",
  "abi": [
    {
      "inputs": [],
      "stateMutability": "nonpayable",
      "type": "constructor"
    },
    {
      "anonymous": false,
      "inputs": [
        {
          "indexed": true,
          "internalType": "address",
          "name": "owner",
          "type": "address"
        },
        {
          "indexed": true,
          "internalType": "address",
          "name": "approved",
          "type": "address"
        },
        {
          "indexed": true,
          "internalType": "uint256",
          "name": "tokenId",
          "type": "uint256"
        }
      ],
      "name": "Approval",
      "type": "event"
    },
    {
      "anonymous": false,
      "inputs": [
        {
          "indexed": true,
          "internalType": "address",
          "name": "owner",
          "type": "address"
        },
        {
          "indexed": true,
          "internalType": "address",
          "name": "operator",
          "type": "address"
        },
        {
          "indexed": false,
          "internalType": "bool",
          "name": "approved",
          "type": "bool"
        }
      ],
      "name": "ApprovalForAll",
      "type": "event"
    },
    {
      "anonymous": false,
      "inputs": [
        {
          "indexed": true,
          "internalType": "address",
          "name": "from",
          "type": "address"
        },
        {
          "indexed": true,
          "internalType": "address",
          "name": "to",
          "type": "address"
        },
        {
          "indexed": true,
          "internalType": "uint256",
          "name": "tokenId",
          "type": "uint256"
        }
      ],
      "name": "Transfer",
      "type": "event"
    },
    {
      "inputs": [
        {
          "internalType": "address",
          "name": "to",
          "type": "address"
        },
        {
          "internalType": "uint256",
          "name": "tokenId",
          "type": "uint256"
        }
      ],
      "name": "approve",
      "outputs": [],
      "stateMutability": "nonpayable",
      "type": "function"
    },
    {
      "inputs": [
        {
          "internalType": "address",
          "name": "owner",
          "type": "address"
        }
      ],
      "name": "balanceOf",
      "outputs": [
        {
          "internalType": "uint256",
          "name": "",
          "type": "uint256"
        }
      ],
      "stateMutability": "view",
      "type": "function"
    },
    {
      "inputs": [
        {
          "internalType": "uint256",
          "name": "tokenId",
          "type": "uint256"
        }
      ],
      "name": "getApproved",
      "outputs": [
        {
          "internalType": "address",
          "name": "",
          "type": "address"
        }
      ],
      "stateMutability": "view",
      "type": "function"
    },
    {
      "inputs": [],
      "name": "getTokenCounter",
      "outputs": [
        {
          "internalType": "uint256",
          "name": "",
          "type": "uint256"
        }
      ],
      "stateMutability": "view",
      "type": "function"
    },
    {
      "inputs": [
        {
          "internalType": "address",
          "name": "owner",
          "type": "address"
        },
        {
          "internalType": "address",
          "name": "operator",
          "type": "address"
        }
      ],
      "name": "isApprovedForAll",
      "outputs": [
        {
          "internalType": "bool",
          "name": "",
          "type": "bool"
        }
      ],
      "stateMutability": "view",
      "type": "function"
    },
    {
      "inputs": [],
      "name": "mintNft",
      "outputs": [
        {
          "internalType": "uint256",
          "name": "",
          "type": "uint256"
        }
      ],
      "stateMutability": "nonpayable",
      "type": "function"
    },
    {
      "inputs": [],
      "name": "name",
      "outputs": [
        {
          "internalType": "string",
          "name": "",
          "type": "string"
        }
      ],
      "stateMutability": "view",
      "type": "function"
    },
    {
      "inputs": [
        {
          "internalType": "uint256",
          "name": "tokenId",
          "type": "uint256"
        }
      ],
      "name": "ownerOf",
      "outputs": [
        {
          "internalType": "address",
          "name": "",
          "type": "address"
        }
      ],
      "stateMutability": "view",
      "type": "function"
    },
    {
      "inputs": [
        {
          "internalType": "address",
          "name": "from",
          "type": "address"
        },
        {
          "internalType": "address",
          "name": "to",
          "type": "address"
        },
        {
          "internalType": "uint256",
          "name": "tokenId",
          "type": "uint256"
        }
      ],
      "name": "safeTransferFrom",
      "outputs": [],
      "stateMutability": "nonpayable",
      "type": "function"
    },
    {
      "inputs": [
        {
          "internalType": "address",
          "name": "from",
          "type": "address"
        },
        {
          "internalType": "address",
          "name": "to",
          "type": "address"
        },
        {
          "internalType": "uint256",
          "name": "tokenId",
          "type": "uint256"
        },
        {
          "internalType": "bytes",
          "name": "data",
          "type": "bytes"
        }
      ],
      "name": "safeTransferFrom",
      "outputs": [],
      "stateMutability": "nonpayable",
      "type": "function"
    },
    {
      "inputs": [
        {
          "internalType": "address",
          "name": "operator",
          "type": "address"
        },
        {
          "internalType": "bool",
          "name": "approved",
          "type": "bool"
        }
      ],
      "name": "setApprovalForAll",
      "outputs": [],
      "stateMutability": "nonpayable",
      "type": "function"
    },
    {
      "inputs": [
        {
          "internalType": "bytes4",
          "name": "interfaceId",
          "type": "bytes4"
        }
      ],
      "name": "supportsInterface",
      "outputs": [
        {
          "internalType": "bool",
          "name": "",
          "type": "bool"
        }
      ],
      "stateMutability": "view",
      "type": "function"
    },
    {
      "inputs": [],
      "name": "symbol",
      "outputs": [
        {
          "internalType": "string",
          "name": "",
          "type": "string"
        }
      ],
      "stateMutability": "view",
      "type": "function"
    },
    {
      "inputs": [
        {
          "internalType": "uint256",
          "name": "",
          "type": "uint256"
        }
      ],
      "name": "tokenURI",
      "outputs": [
        {
          "internalType": "string",
          "name": "",
          "type": "string"
        }
      ],
      "stateMutability": "pure",
      "type": "function"
    },
    {
      "inputs": [
        {
          "internalType": "address",
          "name": "from",
          "type": "address"
        },
        {
          "internalType": "address",
          "name": "to",
          "type": "address"
        },
        {
          "internalType": "uint256",
          "name": "tokenId",
          "type": "uint256"
        }
      ],
      "name": "transferFrom",
      "outputs": [],
      "stateMutability": "nonpayable",
      "type": "function"
    }
  ],
  "transactionHash": "0xb465d7910a4223a6024ec0393b3f53b81e6774a79226fdc88641dd8ca1a49f0f",
  "args": [],
  "numDeployments": 1,
  "solcInputHash": "878842d1cfdd776dfb1c2a53a61f0cb3",
  "bytecode": "0x60806040523480156200001157600080fd5b506040518060400160405280600581526020017f446f6769650000000000000000000000000000000000000000000000000000008152506040518060400160405280600381526020017f444f470000000000000000000000000000000000000000000000000000000000815250816000908051906020019062000096929190620000c0565b508060019080519060200190620000af929190620000c0565b5050506000600681905550620001d5565b828054620000ce9062000170565b90600052602060002090601f016020900481019282620000f257600085556200013e565b82601f106200010d57805160ff19168380011785556200013e565b828001600101855582156200013e579182015b828111156200013d57825182559160200191906001019062000120565b5b5090506200014d919062000151565b5090565b5b808211156200016c57600081600090555060010162000152565b5090565b600060028204905060018216806200018957607f821691505b60208210811415620001a0576200019f620001a6565b5b50919050565b7f4e487b7100000000000000000000000000000000000000000000000000000000600052602260045260246000fd5b61231980620001e56000396000f3fe608060405234801561001057600080fd5b50600436106100f55760003560e01c80636e02007d11610097578063b88d4fde11610066578063b88d4fde14610284578063c2229fea146102a0578063c87b56dd146102be578063e985e9c5146102ee576100f5565b80636e02007d146101fc57806370a082311461021a57806395d89b411461024a578063a22cb46514610268576100f5565b8063095ea7b3116100d3578063095ea7b31461017857806323b872dd1461019457806342842e0e146101b05780636352211e146101cc576100f5565b806301ffc9a7146100fa57806306fdde031461012a578063081812fc14610148575b600080fd5b610114600480360381019061010f91906117ee565b61031e565b6040516101219190611afc565b60405180910390f35b610132610400565b60405161013f9190611b17565b60405180910390f35b610162600480360381019061015d9190611848565b610492565b60405161016f9190611a95565b60405180910390f35b610192600480360381019061018d91906117ae565b6104d8565b005b6101ae60048036038101906101a99190611698565b6105f0565b005b6101ca60048036038101906101c59190611698565b610650565b005b6101e660048036038101906101e19190611848565b610670565b6040516101f39190611a95565b60405180910390f35b6102046106f7565b6040516102119190611c99565b60405180910390f35b610234600480360381019061022f919061162b565b610701565b6040516102419190611c99565b60405180910390f35b6102526107b9565b60405161025f9190611b17565b60405180910390f35b610282600480360381019061027d919061176e565b61084b565b005b61029e600480360381019061029991906116eb565b610861565b005b6102a86108c3565b6040516102b59190611c99565b60405180910390f35b6102d860048036038101906102d39190611848565b6108f3565b6040516102e59190611b17565b60405180910390f35b61030860048036038101906103039190611658565b610915565b6040516103159190611afc565b60405180910390f35b60007f80ac58cd000000000000000000000000000000000000000000000000000000007bffffffffffffffffffffffffffffffffffffffffffffffffffffffff1916827bffffffffffffffffffffffffffffffffffffffffffffffffffffffff191614806103e957507f5b5e139f000000000000000000000000000000000000000000000000000000007bffffffffffffffffffffffffffffffffffffffffffffffffffffffff1916827bffffffffffffffffffffffffffffffffffffffffffffffffffffffff1916145b806103f957506103f8826109a9565b5b9050919050565b60606000805461040f90611e4e565b80601f016020809104026020016040519081016040528092919081815260200182805461043b90611e4e565b80156104885780601f1061045d57610100808354040283529160200191610488565b820191906000526020600020905b81548152906001019060200180831161046b57829003601f168201915b5050505050905090565b600061049d82610a13565b6004600083815260200190815260200160002060009054906101000a900473ffffffffffffffffffffffffffffffffffffffff169050919050565b60006104e382610670565b90508073ffffffffffffffffffffffffffffffffffffffff168373ffffffffffffffffffffffffffffffffffffffff161415610554576040517f08c379a000000000000000000000000000000000000000000000000000000000815260040161054b90611c59565b60405180910390fd5b8073ffffffffffffffffffffffffffffffffffffffff16610573610a5e565b73ffffffffffffffffffffffffffffffffffffffff1614806105a257506105a18161059c610a5e565b610915565b5b6105e1576040517f08c379a00000000000000000000000000000000000000000000000000000000081526004016105d890611c79565b60405180910390fd5b6105eb8383610a66565b505050565b6106016105fb610a5e565b82610b1f565b610640576040517f08c379a000000000000000000000000000000000000000000000000000000000815260040161063790611b39565b60405180910390fd5b61064b838383610bb4565b505050565b61066b83838360405180602001604052806000815250610861565b505050565b60008061067c83610eae565b9050600073ffffffffffffffffffffffffffffffffffffffff168173ffffffffffffffffffffffffffffffffffffffff1614156106ee576040517f08c379a00000000000000000000000000000000000000000000000000000000081526004016106e590611c39565b60405180910390fd5b80915050919050565b6000600654905090565b60008073ffffffffffffffffffffffffffffffffffffffff168273ffffffffffffffffffffffffffffffffffffffff161415610772576040517f08c379a000000000000000000000000000000000000000000000000000000000815260040161076990611bf9565b60405180910390fd5b600360008373ffffffffffffffffffffffffffffffffffffffff1673ffffffffffffffffffffffffffffffffffffffff168152602001908152602001600020549050919050565b6060600180546107c890611e4e565b80601f01602080910402602001604051908101604052809291908181526020018280546107f490611e4e565b80156108415780601f1061081657610100808354040283529160200191610841565b820191906000526020600020905b81548152906001019060200180831161082457829003601f168201915b5050505050905090565b61085d610856610a5e565b8383610eeb565b5050565b61087261086c610a5e565b83610b1f565b6108b1576040517f08c379a00000000000000000000000000000000000000000000000000000000081526004016108a890611b39565b60405180910390fd5b6108bd84848484611058565b50505050565b60006108d1336006546110b4565b6001600660008282546108e49190611d42565b92505081905550600654905090565b606060405180608001604052806057815260200161228d605791399050919050565b6000600560008473ffffffffffffffffffffffffffffffffffffffff1673ffffffffffffffffffffffffffffffffffffffff16815260200190815260200160002060008373ffffffffffffffffffffffffffffffffffffffff1673ffffffffffffffffffffffffffffffffffffffff16815260200190815260200160002060009054906101000a900460ff16905092915050565b60007f01ffc9a7000000000000000000000000000000000000000000000000000000007bffffffffffffffffffffffffffffffffffffffffffffffffffffffff1916827bffffffffffffffffffffffffffffffffffffffffffffffffffffffff1916149050919050565b610a1c816110d2565b610a5b576040517f08c379a0000000000000000000000000000000000000000000000000000000008152600401610a5290611c39565b60405180910390fd5b50565b600033905090565b816004600083815260200190815260200160002060006101000a81548173ffffffffffffffffffffffffffffffffffffffff021916908373ffffffffffffffffffffffffffffffffffffffff160217905550808273ffffffffffffffffffffffffffffffffffffffff16610ad983610670565b73ffffffffffffffffffffffffffffffffffffffff167f8c5be1e5ebec7d5bd14f71427d1e84f3dd0314c0f7b2291e5b200ac8c7c3b92560405160405180910390a45050565b600080610b2b83610670565b90508073ffffffffffffffffffffffffffffffffffffffff168473ffffffffffffffffffffffffffffffffffffffff161480610b6d5750610b6c8185610915565b5b80610bab57508373ffffffffffffffffffffffffffffffffffffffff16610b9384610492565b73ffffffffffffffffffffffffffffffffffffffff16145b91505092915050565b8273ffffffffffffffffffffffffffffffffffffffff16610bd482610670565b73ffffffffffffffffffffffffffffffffffffffff1614610c2a576040517f08c379a0000000000000000000000000000000000000000000000000000000008152600401610c2190611b79565b60405180910390fd5b600073ffffffffffffffffffffffffffffffffffffffff168273ffffffffffffffffffffffffffffffffffffffff161415610c9a576040517f08c379a0000000000000000000000000000000000000000000000000000000008152600401610c9190611bb9565b60405180910390fd5b610ca78383836001611113565b8273ffffffffffffffffffffffffffffffffffffffff16610cc782610670565b73ffffffffffffffffffffffffffffffffffffffff1614610d1d576040517f08c379a0000000000000000000000000000000000000000000000000000000008152600401610d1490611b79565b60405180910390fd5b6004600082815260200190815260200160002060006101000a81549073ffffffffffffffffffffffffffffffffffffffff02191690556001600360008573ffffffffffffffffffffffffffffffffffffffff1673ffffffffffffffffffffffffffffffffffffffff168152602001908152602001600020600082825403925050819055506001600360008473ffffffffffffffffffffffffffffffffffffffff1673ffffffffffffffffffffffffffffffffffffffff16815260200190815260200160002060008282540192505081905550816002600083815260200190815260200160002060006101000a81548173ffffffffffffffffffffffffffffffffffffffff021916908373ffffffffffffffffffffffffffffffffffffffff160217905550808273ffffffffffffffffffffffffffffffffffffffff168473ffffffffffffffffffffffffffffffffffffffff167fddf252ad1be2c89b69c2b068fc378daa952ba7f163c4a11628f55a4df523b3ef60405160405180910390a4610ea98383836001611119565b505050565b60006002600083815260200190815260200160002060009054906101000a900473ffffffffffffffffffffffffffffffffffffffff169050919050565b8173ffffffffffffffffffffffffffffffffffffffff168373ffffffffffffffffffffffffffffffffffffffff161415610f5a576040517f08c379a0000000000000000000000000000000000000000000000000000000008152600401610f5190611bd9565b60405180910390fd5b80600560008573ffffffffffffffffffffffffffffffffffffffff1673ffffffffffffffffffffffffffffffffffffffff16815260200190815260200160002060008473ffffffffffffffffffffffffffffffffffffffff1673ffffffffffffffffffffffffffffffffffffffff16815260200190815260200160002060006101000a81548160ff0219169083151502179055508173ffffffffffffffffffffffffffffffffffffffff168373ffffffffffffffffffffffffffffffffffffffff167f17307eab39ab6107e8899845ad3d59bd9653f200f220920489ca2b5937696c318360405161104b9190611afc565b60405180910390a3505050565b611063848484610bb4565b61106f8484848461111f565b6110ae576040517f08c379a00000000000000000000000000000000000000000000000000000000081526004016110a590611b59565b60405180910390fd5b50505050565b6110ce8282604051806020016040528060008152506112b6565b5050565b60008073ffffffffffffffffffffffffffffffffffffffff166110f483610eae565b73ffffffffffffffffffffffffffffffffffffffff1614159050919050565b50505050565b50505050565b60006111408473ffffffffffffffffffffffffffffffffffffffff16611311565b156112a9578373ffffffffffffffffffffffffffffffffffffffff1663150b7a02611169610a5e565b8786866040518563ffffffff1660e01b815260040161118b9493929190611ab0565b602060405180830381600087803b1580156111a557600080fd5b505af19250505080156111d657506040513d601f19601f820116820180604052508101906111d3919061181b565b60015b611259573d8060008114611206576040519150601f19603f3d011682016040523d82523d6000602084013e61120b565b606091505b50600081511415611251576040517f08c379a000000000000000000000000000000000000000000000000000000000815260040161124890611b59565b60405180910390fd5b805181602001fd5b63150b7a0260e01b7bffffffffffffffffffffffffffffffffffffffffffffffffffffffff1916817bffffffffffffffffffffffffffffffffffffffffffffffffffffffff1916149150506112ae565b600190505b949350505050565b6112c08383611334565b6112cd600084848461111f565b61130c576040517f08c379a000000000000000000000000000000000000000000000000000000000815260040161130390611b59565b60405180910390fd5b505050565b6000808273ffffffffffffffffffffffffffffffffffffffff163b119050919050565b600073ffffffffffffffffffffffffffffffffffffffff168273ffffffffffffffffffffffffffffffffffffffff1614156113a4576040517f08c379a000000000000000000000000000000000000000000000000000000000815260040161139b90611c19565b60405180910390fd5b6113ad816110d2565b156113ed576040517f08c379a00000000000000000000000000000000000000000000000000000000081526004016113e490611b99565b60405180910390fd5b6113fb600083836001611113565b611404816110d2565b15611444576040517f08c379a000000000000000000000000000000000000000000000000000000000815260040161143b90611b99565b60405180910390fd5b6001600360008473ffffffffffffffffffffffffffffffffffffffff1673ffffffffffffffffffffffffffffffffffffffff16815260200190815260200160002060008282540192505081905550816002600083815260200190815260200160002060006101000a81548173ffffffffffffffffffffffffffffffffffffffff021916908373ffffffffffffffffffffffffffffffffffffffff160217905550808273ffffffffffffffffffffffffffffffffffffffff16600073ffffffffffffffffffffffffffffffffffffffff167fddf252ad1be2c89b69c2b068fc378daa952ba7f163c4a11628f55a4df523b3ef60405160405180910390a461154e600083836001611119565b5050565b600061156561156084611cd9565b611cb4565b90508281526020810184848401111561158157611580611f43565b5b61158c848285611e0c565b509392505050565b6000813590506115a381612230565b92915050565b6000813590506115b881612247565b92915050565b6000813590506115cd8161225e565b92915050565b6000815190506115e28161225e565b92915050565b600082601f8301126115fd576115fc611f3e565b5b813561160d848260208601611552565b91505092915050565b60008135905061162581612275565b92915050565b60006020828403121561164157611640611f4d565b5b600061164f84828501611594565b91505092915050565b6000806040838503121561166f5761166e611f4d565b5b600061167d85828601611594565b925050602061168e85828601611594565b9150509250929050565b6000806000606084860312156116b1576116b0611f4d565b5b60006116bf86828701611594565b93505060206116d086828701611594565b92505060406116e186828701611616565b9150509250925092565b6000806000806080858703121561170557611704611f4d565b5b600061171387828801611594565b945050602061172487828801611594565b935050604061173587828801611616565b925050606085013567ffffffffffffffff81111561175657611755611f48565b5b611762878288016115e8565b91505092959194509250565b6000806040838503121561178557611784611f4d565b5b600061179385828601611594565b92505060206117a4858286016115a9565b9150509250929050565b600080604083850312156117c5576117c4611f4d565b5b60006117d385828601611594565b92505060206117e485828601611616565b9150509250929050565b60006020828403121561180457611803611f4d565b5b6000611812848285016115be565b91505092915050565b60006020828403121561183157611830611f4d565b5b600061183f848285016115d3565b91505092915050565b60006020828403121561185e5761185d611f4d565b5b600061186c84828501611616565b91505092915050565b61187e81611d98565b82525050565b61188d81611daa565b82525050565b600061189e82611d0a565b6118a88185611d20565b93506118b8818560208601611e1b565b6118c181611f52565b840191505092915050565b60006118d782611d15565b6118e18185611d31565b93506118f1818560208601611e1b565b6118fa81611f52565b840191505092915050565b6000611912602d83611d31565b915061191d82611f63565b604082019050919050565b6000611935603283611d31565b915061194082611fb2565b604082019050919050565b6000611958602583611d31565b915061196382612001565b604082019050919050565b600061197b601c83611d31565b915061198682612050565b602082019050919050565b600061199e602483611d31565b91506119a982612079565b604082019050919050565b60006119c1601983611d31565b91506119cc826120c8565b602082019050919050565b60006119e4602983611d31565b91506119ef826120f1565b604082019050919050565b6000611a07602083611d31565b9150611a1282612140565b602082019050919050565b6000611a2a601883611d31565b9150611a3582612169565b602082019050919050565b6000611a4d602183611d31565b9150611a5882612192565b604082019050919050565b6000611a70603d83611d31565b9150611a7b826121e1565b604082019050919050565b611a8f81611e02565b82525050565b6000602082019050611aaa6000830184611875565b92915050565b6000608082019050611ac56000830187611875565b611ad26020830186611875565b611adf6040830185611a86565b8181036060830152611af18184611893565b905095945050505050565b6000602082019050611b116000830184611884565b92915050565b60006020820190508181036000830152611b3181846118cc565b905092915050565b60006020820190508181036000830152611b5281611905565b9050919050565b60006020820190508181036000830152611b7281611928565b9050919050565b60006020820190508181036000830152611b928161194b565b9050919050565b60006020820190508181036000830152611bb28161196e565b9050919050565b60006020820190508181036000830152611bd281611991565b9050919050565b60006020820190508181036000830152611bf2816119b4565b9050919050565b60006020820190508181036000830152611c12816119d7565b9050919050565b60006020820190508181036000830152611c32816119fa565b9050919050565b60006020820190508181036000830152611c5281611a1d565b9050919050565b60006020820190508181036000830152611c7281611a40565b9050919050565b60006020820190508181036000830152611c9281611a63565b9050919050565b6000602082019050611cae6000830184611a86565b92915050565b6000611cbe611ccf565b9050611cca8282611e80565b919050565b6000604051905090565b600067ffffffffffffffff821115611cf457611cf3611f0f565b5b611cfd82611f52565b9050602081019050919050565b600081519050919050565b600081519050919050565b600082825260208201905092915050565b600082825260208201905092915050565b6000611d4d82611e02565b9150611d5883611e02565b9250827fffffffffffffffffffffffffffffffffffffffffffffffffffffffffffffffff03821115611d8d57611d8c611eb1565b5b828201905092915050565b6000611da382611de2565b9050919050565b60008115159050919050565b60007fffffffff0000000000000000000000000000000000000000000000000000000082169050919050565b600073ffffffffffffffffffffffffffffffffffffffff82169050919050565b6000819050919050565b82818337600083830152505050565b60005b83811015611e39578082015181840152602081019050611e1e565b83811115611e48576000848401525b50505050565b60006002820490506001821680611e6657607f821691505b60208210811415611e7a57611e79611ee0565b5b50919050565b611e8982611f52565b810181811067ffffffffffffffff82111715611ea857611ea7611f0f565b5b80604052505050565b7f4e487b7100000000000000000000000000000000000000000000000000000000600052601160045260246000fd5b7f4e487b7100000000000000000000000000000000000000000000000000000000600052602260045260246000fd5b7f4e487b7100000000000000000000000000000000000000000000000000000000600052604160045260246000fd5b600080fd5b600080fd5b600080fd5b600080fd5b6000601f19601f8301169050919050565b7f4552433732313a2063616c6c6572206973206e6f7420746f6b656e206f776e6560008201527f72206f7220617070726f76656400000000000000000000000000000000000000602082015250565b7f4552433732313a207472616e7366657220746f206e6f6e20455243373231526560008201527f63656976657220696d706c656d656e7465720000000000000000000000000000602082015250565b7f4552433732313a207472616e736665722066726f6d20696e636f72726563742060008201527f6f776e6572000000000000000000000000000000000000000000000000000000602082015250565b7f4552433732313a20746f6b656e20616c7265616479206d696e74656400000000600082015250565b7f4552433732313a207472616e7366657220746f20746865207a65726f2061646460008201527f7265737300000000000000000000000000000000000000000000000000000000602082015250565b7f4552433732313a20617070726f766520746f2063616c6c657200000000000000600082015250565b7f4552433732313a2061646472657373207a65726f206973206e6f74206120766160008201527f6c6964206f776e65720000000000000000000000000000000000000000000000602082015250565b7f4552433732313a206d696e7420746f20746865207a65726f2061646472657373600082015250565b7f4552433732313a20696e76616c696420746f6b656e2049440000000000000000600082015250565b7f4552433732313a20617070726f76616c20746f2063757272656e74206f776e6560008201527f7200000000000000000000000000000000000000000000000000000000000000602082015250565b7f4552433732313a20617070726f76652063616c6c6572206973206e6f7420746f60008201527f6b656e206f776e6572206f7220617070726f76656420666f7220616c6c000000602082015250565b61223981611d98565b811461224457600080fd5b50565b61225081611daa565b811461225b57600080fd5b50565b61226781611db6565b811461227257600080fd5b50565b61227e81611e02565b811461228957600080fd5b5056fe697066733a2f2f62616679626569673337696f6972373673376d67356f6f6265746e636f6a636d3363336878617379643472766964346a71687934676b61686567342f3f66696c656e616d653d302d5055472e6a736f6ea264697066735822122083b756766b64d7d1874d281ed66a1f8c915debc21a0e146142901cf1475e2c7164736f6c63430008070033",
  "devdoc": {
    "kind": "dev",
    "methods": {
      "approve(address,uint256)": {
        "details": "See {IERC721-approve}."
      },
      "balanceOf(address)": {
        "details": "See {IERC721-balanceOf}."
      },
      "getApproved(uint256)": {
        "details": "See {IERC721-getApproved}."
      },
      "isApprovedForAll(address,address)": {
        "details": "See {IERC721-isApprovedForAll}."
      },
      "name()": {
        "details": "See {IERC721Metadata-name}."
      },
      "ownerOf(uint256)": {
        "details": "See {IERC721-ownerOf}."
      },
      "safeTransferFrom(address,address,uint256)": {
        "details": "See {IERC721-safeTransferFrom}."
      },
      "safeTransferFrom(address,address,uint256,bytes)": {
        "details": "See {IERC721-safeTransferFrom}."
      },
      "setApprovalForAll(address,bool)": {
        "details": "See {IERC721-setApprovalForAll}."
      },
      "supportsInterface(bytes4)": {
        "details": "See {IERC165-supportsInterface}."
      },
      "symbol()": {
        "details": "See {IERC721Metadata-symbol}."
      },
      "transferFrom(address,address,uint256)": {
        "details": "See {IERC721-transferFrom}."
      }
    },
    "version": 1
  },
  "userdoc": {
    "kind": "user",
    "methods": {},
    "version": 1
  },
  "storageLayout": {
    "storage": [
      {
        "astId": 1296,
        "contract": "contracts/BasicNFT.sol:BasicNFT",
        "label": "_name",
        "offset": 0,
        "slot": "0",
        "type": "t_string_storage"
      },
      {
        "astId": 1298,
        "contract": "contracts/BasicNFT.sol:BasicNFT",
        "label": "_symbol",
        "offset": 0,
        "slot": "1",
        "type": "t_string_storage"
      },
      {
        "astId": 1302,
        "contract": "contracts/BasicNFT.sol:BasicNFT",
        "label": "_owners",
        "offset": 0,
        "slot": "2",
        "type": "t_mapping(t_uint256,t_address)"
      },
      {
        "astId": 1306,
        "contract": "contracts/BasicNFT.sol:BasicNFT",
        "label": "_balances",
        "offset": 0,
        "slot": "3",
        "type": "t_mapping(t_address,t_uint256)"
      },
      {
        "astId": 1310,
        "contract": "contracts/BasicNFT.sol:BasicNFT",
        "label": "_tokenApprovals",
        "offset": 0,
        "slot": "4",
        "type": "t_mapping(t_uint256,t_address)"
      },
      {
        "astId": 1316,
        "contract": "contracts/BasicNFT.sol:BasicNFT",
        "label": "_operatorApprovals",
        "offset": 0,
        "slot": "5",
        "type": "t_mapping(t_address,t_mapping(t_address,t_bool))"
      },
      {
        "astId": 4033,
        "contract": "contracts/BasicNFT.sol:BasicNFT",
        "label": "s_tokenCounter",
        "offset": 0,
        "slot": "6",
        "type": "t_uint256"
      }
    ],
    "types": {
      "t_address": {
        "encoding": "inplace",
        "label": "address",
        "numberOfBytes": "20"
      },
      "t_bool": {
        "encoding": "inplace",
        "label": "bool",
        "numberOfBytes": "1"
      },
      "t_mapping(t_address,t_bool)": {
        "encoding": "mapping",
        "key": "t_address",
        "label": "mapping(address => bool)",
        "numberOfBytes": "32",
        "value": "t_bool"
      },
      "t_mapping(t_address,t_mapping(t_address,t_bool))": {
        "encoding": "mapping",
        "key": "t_address",
        "label": "mapping(address => mapping(address => bool))",
        "numberOfBytes": "32",
        "value": "t_mapping(t_address,t_bool)"
      },
      "t_mapping(t_address,t_uint256)": {
        "encoding": "mapping",
        "key": "t_address",
        "label": "mapping(address => uint256)",
        "numberOfBytes": "32",
        "value": "t_uint256"
      },
      "t_mapping(t_uint256,t_address)": {
        "encoding": "mapping",
        "key": "t_uint256",
        "label": "mapping(uint256 => address)",
        "numberOfBytes": "32",
        "value": "t_address"
      },
      "t_string_storage": {
        "encoding": "bytes",
        "label": "string",
        "numberOfBytes": "32"
      },
      "t_uint256": {
        "encoding": "inplace",
        "label": "uint256",
        "numberOfBytes": "32"
      }
    }
  }
}