{
  "address": "0x7Bf19A65C53c6b4e7A9A7a49e84635FEcfb13a74",
  "abi": [
    {
      "inputs": [
        {
          "internalType": "address",
          "name": "priceFeedAddress",
          "type": "address"
        },
        {
          "internalType": "string",
          "name": "lowSvg",
          "type": "string"
        },
        {
          "internalType": "string",
          "name": "highSvg",
          "type": "string"
        }
      ],
      "stateMutability": "nonpayable",
      "type": "constructor"
    },
    {
      "anonymous": false,
      "inputs": [
        {
          "indexed": true,
          "internalType": "address",
          "name": "owner",
          "type": "address"
        },
        {
          "indexed": true,
          "internalType": "address",
          "name": "approved",
          "type": "address"
        },
        {
          "indexed": true,
          "internalType": "uint256",
          "name": "tokenId",
          "type": "uint256"
        }
      ],
      "name": "Approval",
      "type": "event"
    },
    {
      "anonymous": false,
      "inputs": [
        {
          "indexed": true,
          "internalType": "address",
          "name": "owner",
          "type": "address"
        },
        {
          "indexed": true,
          "internalType": "address",
          "name": "operator",
          "type": "address"
        },
        {
          "indexed": false,
          "internalType": "bool",
          "name": "approved",
          "type": "bool"
        }
      ],
      "name": "ApprovalForAll",
      "type": "event"
    },
    {
      "anonymous": false,
      "inputs": [
        {
          "indexed": false,
          "internalType": "uint256",
          "name": "counterValue",
          "type": "uint256"
        },
        {
          "indexed": false,
          "internalType": "int256",
          "name": "value",
          "type": "int256"
        }
      ],
      "name": "CreatedNft",
      "type": "event"
    },
    {
      "anonymous": false,
      "inputs": [
        {
          "indexed": true,
          "internalType": "address",
          "name": "from",
          "type": "address"
        },
        {
          "indexed": true,
          "internalType": "address",
          "name": "to",
          "type": "address"
        },
        {
          "indexed": true,
          "internalType": "uint256",
          "name": "tokenId",
          "type": "uint256"
        }
      ],
      "name": "Transfer",
      "type": "event"
    },
    {
      "inputs": [
        {
          "internalType": "address",
          "name": "to",
          "type": "address"
        },
        {
          "internalType": "uint256",
          "name": "tokenId",
          "type": "uint256"
        }
      ],
      "name": "approve",
      "outputs": [],
      "stateMutability": "nonpayable",
      "type": "function"
    },
    {
      "inputs": [
        {
          "internalType": "address",
          "name": "owner",
          "type": "address"
        }
      ],
      "name": "balanceOf",
      "outputs": [
        {
          "internalType": "uint256",
          "name": "",
          "type": "uint256"
        }
      ],
      "stateMutability": "view",
      "type": "function"
    },
    {
      "inputs": [
        {
          "internalType": "uint256",
          "name": "tokenId",
          "type": "uint256"
        }
      ],
      "name": "getApproved",
      "outputs": [
        {
          "internalType": "address",
          "name": "",
          "type": "address"
        }
      ],
      "stateMutability": "view",
      "type": "function"
    },
    {
      "inputs": [],
      "name": "getHighSVG",
      "outputs": [
        {
          "internalType": "string",
          "name": "",
          "type": "string"
        }
      ],
      "stateMutability": "view",
      "type": "function"
    },
    {
      "inputs": [],
      "name": "getLowSVG",
      "outputs": [
        {
          "internalType": "string",
          "name": "",
          "type": "string"
        }
      ],
      "stateMutability": "view",
      "type": "function"
    },
    {
      "inputs": [],
      "name": "getPriceFeed",
      "outputs": [
        {
          "internalType": "contract AggregatorV3Interface",
          "name": "",
          "type": "address"
        }
      ],
      "stateMutability": "view",
      "type": "function"
    },
    {
      "inputs": [],
      "name": "getTokenCounter",
      "outputs": [
        {
          "internalType": "uint256",
          "name": "",
          "type": "uint256"
        }
      ],
      "stateMutability": "view",
      "type": "function"
    },
    {
      "inputs": [
        {
          "internalType": "address",
          "name": "owner",
          "type": "address"
        },
        {
          "internalType": "address",
          "name": "operator",
          "type": "address"
        }
      ],
      "name": "isApprovedForAll",
      "outputs": [
        {
          "internalType": "bool",
          "name": "",
          "type": "bool"
        }
      ],
      "stateMutability": "view",
      "type": "function"
    },
    {
      "inputs": [
        {
          "internalType": "int256",
          "name": "highValue",
          "type": "int256"
        }
      ],
      "name": "mintNft",
      "outputs": [],
      "stateMutability": "nonpayable",
      "type": "function"
    },
    {
      "inputs": [],
      "name": "name",
      "outputs": [
        {
          "internalType": "string",
          "name": "",
          "type": "string"
        }
      ],
      "stateMutability": "view",
      "type": "function"
    },
    {
      "inputs": [
        {
          "internalType": "uint256",
          "name": "tokenId",
          "type": "uint256"
        }
      ],
      "name": "ownerOf",
      "outputs": [
        {
          "internalType": "address",
          "name": "",
          "type": "address"
        }
      ],
      "stateMutability": "view",
      "type": "function"
    },
    {
      "inputs": [
        {
          "internalType": "uint256",
          "name": "",
          "type": "uint256"
        }
      ],
      "name": "s_tokenIdToHighValue",
      "outputs": [
        {
          "internalType": "int256",
          "name": "",
          "type": "int256"
        }
      ],
      "stateMutability": "view",
      "type": "function"
    },
    {
      "inputs": [
        {
          "internalType": "address",
          "name": "from",
          "type": "address"
        },
        {
          "internalType": "address",
          "name": "to",
          "type": "address"
        },
        {
          "internalType": "uint256",
          "name": "tokenId",
          "type": "uint256"
        }
      ],
      "name": "safeTransferFrom",
      "outputs": [],
      "stateMutability": "nonpayable",
      "type": "function"
    },
    {
      "inputs": [
        {
          "internalType": "address",
          "name": "from",
          "type": "address"
        },
        {
          "internalType": "address",
          "name": "to",
          "type": "address"
        },
        {
          "internalType": "uint256",
          "name": "tokenId",
          "type": "uint256"
        },
        {
          "internalType": "bytes",
          "name": "data",
          "type": "bytes"
        }
      ],
      "name": "safeTransferFrom",
      "outputs": [],
      "stateMutability": "nonpayable",
      "type": "function"
    },
    {
      "inputs": [
        {
          "internalType": "address",
          "name": "operator",
          "type": "address"
        },
        {
          "internalType": "bool",
          "name": "approved",
          "type": "bool"
        }
      ],
      "name": "setApprovalForAll",
      "outputs": [],
      "stateMutability": "nonpayable",
      "type": "function"
    },
    {
      "inputs": [
        {
          "internalType": "bytes4",
          "name": "interfaceId",
          "type": "bytes4"
        }
      ],
      "name": "supportsInterface",
      "outputs": [
        {
          "internalType": "bool",
          "name": "",
          "type": "bool"
        }
      ],
      "stateMutability": "view",
      "type": "function"
    },
    {
      "inputs": [
        {
          "internalType": "string",
          "name": "svg",
          "type": "string"
        }
      ],
      "name": "svgToImgUri",
      "outputs": [
        {
          "internalType": "string",
          "name": "",
          "type": "string"
        }
      ],
      "stateMutability": "pure",
      "type": "function"
    },
    {
      "inputs": [],
      "name": "symbol",
      "outputs": [
        {
          "internalType": "string",
          "name": "",
          "type": "string"
        }
      ],
      "stateMutability": "view",
      "type": "function"
    },
    {
      "inputs": [
        {
          "internalType": "uint256",
          "name": "tokenId",
          "type": "uint256"
        }
      ],
      "name": "tokenURI",
      "outputs": [
        {
          "internalType": "string",
          "name": "",
          "type": "string"
        }
      ],
      "stateMutability": "view",
      "type": "function"
    },
    {
      "inputs": [
        {
          "internalType": "address",
          "name": "from",
          "type": "address"
        },
        {
          "internalType": "address",
          "name": "to",
          "type": "address"
        },
        {
          "internalType": "uint256",
          "name": "tokenId",
          "type": "uint256"
        }
      ],
      "name": "transferFrom",
      "outputs": [],
      "stateMutability": "nonpayable",
      "type": "function"
    }
  ],
  "transactionHash": "0x3420e3acf65d5f8fd36805c72dbfac5c7b60e53a8b933a104329d1c2c46cb25b",
  "args": [
    "0x694AA1769357215DE4FAC081bf1f309aDC325306",
    "<?xml version=\"1.0\" standalone=\"no\"?>\n<svg width=\"1024px\" height=\"1024px\" viewBox=\"0 0 1024 1024\" xmlns=\"http://www.w3.org/2000/svg\">\n  <path fill=\"#333\" d=\"M512 64C264.6 64 64 264.6 64 512s200.6 448 448 448 448-200.6 448-448S759.4 64 512 64zm0 820c-205.4 0-372-166.6-372-372s166.6-372 372-372 372 166.6 372 372-166.6 372-372 372z\"/>\n  <path fill=\"#E6E6E6\" d=\"M512 140c-205.4 0-372 166.6-372 372s166.6 372 372 372 372-166.6 372-372-166.6-372-372-372zM288 421a48.01 48.01 0 0 1 96 0 48.01 48.01 0 0 1-96 0zm376 272h-48.1c-4.2 0-7.8-3.2-8.1-7.4C604 636.1 562.5 597 512 597s-92.1 39.1-95.8 88.6c-.3 4.2-3.9 7.4-8.1 7.4H360a8 8 0 0 1-8-8.4c4.4-84.3 74.5-151.6 160-151.6s155.6 67.3 160 151.6a8 8 0 0 1-8 8.4zm24-224a48.01 48.01 0 0 1 0-96 48.01 48.01 0 0 1 0 96z\"/>\n  <path fill=\"#333\" d=\"M288 421a48 48 0 1 0 96 0 48 48 0 1 0-96 0zm224 112c-85.5 0-155.6 67.3-160 151.6a8 8 0 0 0 8 8.4h48.1c4.2 0 7.8-3.2 8.1-7.4 3.7-49.5 45.3-88.6 95.8-88.6s92 39.1 95.8 88.6c.3 4.2 3.9 7.4 8.1 7.4H664a8 8 0 0 0 8-8.4C667.6 600.3 597.5 533 512 533zm128-112a48 48 0 1 0 96 0 48 48 0 1 0-96 0z\"/>\n</svg>\n",
    "<svg viewBox=\"0 0 200 200\" width=\"400\"  height=\"400\" xmlns=\"http://www.w3.org/2000/svg\">\n  <circle cx=\"100\" cy=\"100\" fill=\"yellow\" r=\"78\" stroke=\"black\" stroke-width=\"3\"/>\n  <g class=\"eyes\">\n    <circle cx=\"61\" cy=\"82\" r=\"12\"/>\n    <circle cx=\"127\" cy=\"82\" r=\"12\"/>\n  </g>\n  <path d=\"m136.81 116.53c.69 26.17-64.11 42-81.52-.73\" style=\"fill:none; stroke: black; stroke-width: 3;\"/>\n</svg>"
  ],
  "numDeployments": 1,
  "solcInputHash": "878842d1cfdd776dfb1c2a53a61f0cb3",
  "bytecode": "0x60a06040523480156200001157600080fd5b5060405162003a3838038062003a388339818101604052810190620000379190620004e2565b6040518060400160405280600e81526020017f52616e646f6d20535647204e66740000000000000000000000000000000000008152506040518060400160405280600381526020017f52534e00000000000000000000000000000000000000000000000000000000008152508160009080519060200190620000bb9291906200039d565b508060019080519060200190620000d49291906200039d565b5050506000600681905550620000f0826200017160201b60201c565b60079080519060200190620001079291906200039d565b5062000119816200017160201b60201c565b60089080519060200190620001309291906200039d565b508273ffffffffffffffffffffffffffffffffffffffff1660808173ffffffffffffffffffffffffffffffffffffffff1660601b815250505050506200093a565b60606000620001ac836040516020016200018c9190620005b3565b6040516020818303038152906040526200020f60201b62000f391760201c565b90506040518060400160405280601a81526020017f646174613a696d6167652f7376672b786d6c3b6261736536342c00000000000081525081604051602001620001f8929190620005cc565b604051602081830303815290604052915050919050565b6060600082511415620002345760405180602001604052806000815250905062000398565b6000604051806060016040528060408152602001620039f8604091399050600060036002855162000266919062000669565b620002729190620006c6565b6004620002809190620006fe565b9050600060208262000293919062000669565b67ffffffffffffffff811115620002af57620002ae620008cc565b5b6040519080825280601f01601f191660200182016040528015620002e25781602001600182028036833780820191505090505b509050818152600183018586518101602084015b8183101562000353576003830192508251603f8160121c168501518253600182019150603f81600c1c168501518253600182019150603f8160061c168501518253600182019150603f8116850151825360018201915050620002f6565b60038951066001811462000370576002811462000381576200038c565b613d3d60f01b60028303526200038c565b603d60f81b60018303525b50505050508093505050505b919050565b828054620003ab90620007d3565b90600052602060002090601f016020900481019282620003cf57600085556200041b565b82601f10620003ea57805160ff19168380011785556200041b565b828001600101855582156200041b579182015b828111156200041a578251825591602001919060010190620003fd565b5b5090506200042a91906200042e565b5090565b5b80821115620004495760008160009055506001016200042f565b5090565b6000620004646200045e846200061d565b620005f4565b90508281526020810184848401111562000483576200048262000900565b5b620004908482856200079d565b509392505050565b600081519050620004a98162000920565b92915050565b600082601f830112620004c757620004c6620008fb565b5b8151620004d98482602086016200044d565b91505092915050565b600080600060608486031215620004fe57620004fd6200090a565b5b60006200050e8682870162000498565b935050602084015167ffffffffffffffff81111562000532576200053162000905565b5b6200054086828701620004af565b925050604084015167ffffffffffffffff81111562000564576200056362000905565b5b6200057286828701620004af565b9150509250925092565b6000620005898262000653565b6200059581856200065e565b9350620005a78185602086016200079d565b80840191505092915050565b6000620005c182846200057c565b915081905092915050565b6000620005da82856200057c565b9150620005e882846200057c565b91508190509392505050565b60006200060062000613565b90506200060e828262000809565b919050565b6000604051905090565b600067ffffffffffffffff8211156200063b576200063a620008cc565b5b62000646826200090f565b9050602081019050919050565b600081519050919050565b600081905092915050565b6000620006768262000793565b9150620006838362000793565b9250827fffffffffffffffffffffffffffffffffffffffffffffffffffffffffffffffff03821115620006bb57620006ba6200083f565b5b828201905092915050565b6000620006d38262000793565b9150620006e08362000793565b925082620006f357620006f26200086e565b5b828204905092915050565b60006200070b8262000793565b9150620007188362000793565b9250817fffffffffffffffffffffffffffffffffffffffffffffffffffffffffffffffff04831182151516156200075457620007536200083f565b5b828202905092915050565b60006200076c8262000773565b9050919050565b600073ffffffffffffffffffffffffffffffffffffffff82169050919050565b6000819050919050565b60005b83811015620007bd578082015181840152602081019050620007a0565b83811115620007cd576000848401525b50505050565b60006002820490506001821680620007ec57607f821691505b602082108114156200080357620008026200089d565b5b50919050565b62000814826200090f565b810181811067ffffffffffffffff82111715620008365762000835620008cc565b5b80604052505050565b7f4e487b7100000000000000000000000000000000000000000000000000000000600052601160045260246000fd5b7f4e487b7100000000000000000000000000000000000000000000000000000000600052601260045260246000fd5b7f4e487b7100000000000000000000000000000000000000000000000000000000600052602260045260246000fd5b7f4e487b7100000000000000000000000000000000000000000000000000000000600052604160045260246000fd5b600080fd5b600080fd5b600080fd5b600080fd5b6000601f19601f8301169050919050565b6200092b816200075f565b81146200093757600080fd5b50565b60805160601c6130986200096060003960008181610ad60152610c4f01526130986000f3fe608060405234801561001057600080fd5b506004361061012c5760003560e01c806370a08231116100ad578063b88d4fde11610071578063b88d4fde14610343578063c87b56dd1461035f578063e425aded1461038f578063e985e9c5146103bf578063ed28a122146103ef5761012c565b806370a082311461029d57806376f6056b146102cd57806395d89b41146102eb5780639e87a5cd14610309578063a22cb465146103275761012c565b806323b872dd116100f457806323b872dd146101e757806328e83cc81461020357806342842e0e146102335780636352211e1461024f5780636e02007d1461027f5761012c565b806301ffc9a71461013157806306fdde0314610161578063081812fc1461017f578063095ea7b3146101af5780631e930812146101cb575b600080fd5b61014b60048036038101906101469190611ff8565b61040d565b6040516101589190612580565b60405180910390f35b6101696104ef565b60405161017691906125d1565b60405180910390f35b610199600480360381019061019491906120c8565b610581565b6040516101a69190612519565b60405180910390f35b6101c960048036038101906101c49190611fb8565b6105c7565b005b6101e560048036038101906101e09190612052565b6106df565b005b61020160048036038101906101fc9190611ea2565b610758565b005b61021d6004803603810190610218919061207f565b6107b8565b60405161022a91906125d1565b60405180910390f35b61024d60048036038101906102489190611ea2565b610845565b005b610269600480360381019061026491906120c8565b610865565b6040516102769190612519565b60405180910390f35b6102876108ec565b6040516102949190612773565b60405180910390f35b6102b760048036038101906102b29190611e35565b6108f6565b6040516102c49190612773565b60405180910390f35b6102d56109ae565b6040516102e291906125d1565b60405180910390f35b6102f3610a40565b60405161030091906125d1565b60405180910390f35b610311610ad2565b60405161031e919061259b565b60405180910390f35b610341600480360381019061033c9190611f78565b610afa565b005b61035d60048036038101906103589190611ef5565b610b10565b005b610379600480360381019061037491906120c8565b610b72565b60405161038691906125d1565b60405180910390f35b6103a960048036038101906103a491906120c8565b610dfb565b6040516103b691906125b6565b60405180910390f35b6103d960048036038101906103d49190611e62565b610e13565b6040516103e69190612580565b60405180910390f35b6103f7610ea7565b60405161040491906125d1565b60405180910390f35b60007f80ac58cd000000000000000000000000000000000000000000000000000000007bffffffffffffffffffffffffffffffffffffffffffffffffffffffff1916827bffffffffffffffffffffffffffffffffffffffffffffffffffffffff191614806104d857507f5b5e139f000000000000000000000000000000000000000000000000000000007bffffffffffffffffffffffffffffffffffffffffffffffffffffffff1916827bffffffffffffffffffffffffffffffffffffffffffffffffffffffff1916145b806104e857506104e7826110b2565b5b9050919050565b6060600080546104fe90612a6e565b80601f016020809104026020016040519081016040528092919081815260200182805461052a90612a6e565b80156105775780601f1061054c57610100808354040283529160200191610577565b820191906000526020600020905b81548152906001019060200180831161055a57829003601f168201915b5050505050905090565b600061058c8261111c565b6004600083815260200190815260200160002060009054906101000a900473ffffffffffffffffffffffffffffffffffffffff169050919050565b60006105d282610865565b90508073ffffffffffffffffffffffffffffffffffffffff168373ffffffffffffffffffffffffffffffffffffffff161415610643576040517f08c379a000000000000000000000000000000000000000000000000000000000815260040161063a90612733565b60405180910390fd5b8073ffffffffffffffffffffffffffffffffffffffff16610662611167565b73ffffffffffffffffffffffffffffffffffffffff16148061069157506106908161068b611167565b610e13565b5b6106d0576040517f08c379a00000000000000000000000000000000000000000000000000000000081526004016106c790612753565b60405180910390fd5b6106da838361116f565b505050565b806009600060065481526020019081526020016000208190555061070533600654611228565b60016006546107149190612881565b6006819055507f51e67edca96a8e375a3b7ab6640aee9013f7fb40776849f5cc0b0fd6212515636006548260405161074d92919061278e565b60405180910390a150565b610769610763611167565b82611246565b6107a8576040517f08c379a000000000000000000000000000000000000000000000000000000000815260040161079f906125f3565b60405180910390fd5b6107b38383836112db565b505050565b606060006107e4836040516020016107d0919061248e565b604051602081830303815290604052610f39565b90506040518060400160405280601a81526020017f646174613a696d6167652f7376672b786d6c3b6261736536342c0000000000008152508160405160200161082e9291906124a5565b604051602081830303815290604052915050919050565b61086083838360405180602001604052806000815250610b10565b505050565b600080610871836115d5565b9050600073ffffffffffffffffffffffffffffffffffffffff168173ffffffffffffffffffffffffffffffffffffffff1614156108e3576040517f08c379a00000000000000000000000000000000000000000000000000000000081526004016108da90612713565b60405180910390fd5b80915050919050565b6000600654905090565b60008073ffffffffffffffffffffffffffffffffffffffff168273ffffffffffffffffffffffffffffffffffffffff161415610967576040517f08c379a000000000000000000000000000000000000000000000000000000000815260040161095e906126d3565b60405180910390fd5b600360008373ffffffffffffffffffffffffffffffffffffffff1673ffffffffffffffffffffffffffffffffffffffff168152602001908152602001600020549050919050565b6060600880546109bd90612a6e565b80601f01602080910402602001604051908101604052809291908181526020018280546109e990612a6e565b8015610a365780601f10610a0b57610100808354040283529160200191610a36565b820191906000526020600020905b815481529060010190602001808311610a1957829003601f168201915b5050505050905090565b606060018054610a4f90612a6e565b80601f0160208091040260200160405190810160405280929190818152602001828054610a7b90612a6e565b8015610ac85780601f10610a9d57610100808354040283529160200191610ac8565b820191906000526020600020905b815481529060010190602001808311610aab57829003601f168201915b5050505050905090565b60007f0000000000000000000000000000000000000000000000000000000000000000905090565b610b0c610b05611167565b8383611612565b5050565b610b21610b1b611167565b83611246565b610b60576040517f08c379a0000000000000000000000000000000000000000000000000000000008152600401610b57906125f3565b60405180910390fd5b610b6c8484848461177f565b50505050565b6060610b7d826117db565b610bbc576040517f08c379a0000000000000000000000000000000000000000000000000000000008152600401610bb390612673565b60405180910390fd5b600060078054610bcb90612a6e565b80601f0160208091040260200160405190810160405280929190818152602001828054610bf790612a6e565b8015610c445780601f10610c1957610100808354040283529160200191610c44565b820191906000526020600020905b815481529060010190602001808311610c2757829003601f168201915b5050505050905060007f000000000000000000000000000000000000000000000000000000000000000073ffffffffffffffffffffffffffffffffffffffff1663feaf968c6040518163ffffffff1660e01b815260040160a06040518083038186803b158015610cb357600080fd5b505afa158015610cc7573d6000803e3d6000fd5b505050506040513d601f19601f82011682018060405250810190610ceb91906120f5565b50505091505060096000858152602001908152602001600020548112610d995760088054610d1890612a6e565b80601f0160208091040260200160405190810160405280929190818152602001828054610d4490612a6e565b8015610d915780601f10610d6657610100808354040283529160200191610d91565b820191906000526020600020905b815481529060010190602001808311610d7457829003601f168201915b505050505091505b610da161181c565b610dd2610dac6104ef565b84604051602001610dbe9291906124c9565b604051602081830303815290604052610f39565b604051602001610de39291906124a5565b60405160208183030381529060405292505050919050565b60096020528060005260406000206000915090505481565b6000600560008473ffffffffffffffffffffffffffffffffffffffff1673ffffffffffffffffffffffffffffffffffffffff16815260200190815260200160002060008373ffffffffffffffffffffffffffffffffffffffff1673ffffffffffffffffffffffffffffffffffffffff16815260200190815260200160002060009054906101000a900460ff16905092915050565b606060078054610eb690612a6e565b80601f0160208091040260200160405190810160405280929190818152602001828054610ee290612a6e565b8015610f2f5780601f10610f0457610100808354040283529160200191610f2f565b820191906000526020600020905b815481529060010190602001808311610f1257829003601f168201915b5050505050905090565b6060600082511415610f5c576040518060200160405280600081525090506110ad565b60006040518060600160405280604081526020016130236040913990506000600360028551610f8b9190612881565b610f9591906128d7565b6004610fa19190612908565b90506000602082610fb29190612881565b67ffffffffffffffff811115610fcb57610fca612b5e565b5b6040519080825280601f01601f191660200182016040528015610ffd5781602001600182028036833780820191505090505b509050818152600183018586518101602084015b8183101561106c576003830192508251603f8160121c168501518253600182019150603f81600c1c168501518253600182019150603f8160061c168501518253600182019150603f8116850151825360018201915050611011565b6003895106600181146110865760028114611096576110a1565b613d3d60f01b60028303526110a1565b603d60f81b60018303525b50505050508093505050505b919050565b60007f01ffc9a7000000000000000000000000000000000000000000000000000000007bffffffffffffffffffffffffffffffffffffffffffffffffffffffff1916827bffffffffffffffffffffffffffffffffffffffffffffffffffffffff1916149050919050565b611125816117db565b611164576040517f08c379a000000000000000000000000000000000000000000000000000000000815260040161115b90612713565b60405180910390fd5b50565b600033905090565b816004600083815260200190815260200160002060006101000a81548173ffffffffffffffffffffffffffffffffffffffff021916908373ffffffffffffffffffffffffffffffffffffffff160217905550808273ffffffffffffffffffffffffffffffffffffffff166111e283610865565b73ffffffffffffffffffffffffffffffffffffffff167f8c5be1e5ebec7d5bd14f71427d1e84f3dd0314c0f7b2291e5b200ac8c7c3b92560405160405180910390a45050565b611242828260405180602001604052806000815250611859565b5050565b60008061125283610865565b90508073ffffffffffffffffffffffffffffffffffffffff168473ffffffffffffffffffffffffffffffffffffffff16148061129457506112938185610e13565b5b806112d257508373ffffffffffffffffffffffffffffffffffffffff166112ba84610581565b73ffffffffffffffffffffffffffffffffffffffff16145b91505092915050565b8273ffffffffffffffffffffffffffffffffffffffff166112fb82610865565b73ffffffffffffffffffffffffffffffffffffffff1614611351576040517f08c379a000000000000000000000000000000000000000000000000000000000815260040161134890612633565b60405180910390fd5b600073ffffffffffffffffffffffffffffffffffffffff168273ffffffffffffffffffffffffffffffffffffffff1614156113c1576040517f08c379a00000000000000000000000000000000000000000000000000000000081526004016113b890612693565b60405180910390fd5b6113ce83838360016118b4565b8273ffffffffffffffffffffffffffffffffffffffff166113ee82610865565b73ffffffffffffffffffffffffffffffffffffffff1614611444576040517f08c379a000000000000000000000000000000000000000000000000000000000815260040161143b90612633565b60405180910390fd5b6004600082815260200190815260200160002060006101000a81549073ffffffffffffffffffffffffffffffffffffffff02191690556001600360008573ffffffffffffffffffffffffffffffffffffffff1673ffffffffffffffffffffffffffffffffffffffff168152602001908152602001600020600082825403925050819055506001600360008473ffffffffffffffffffffffffffffffffffffffff1673ffffffffffffffffffffffffffffffffffffffff16815260200190815260200160002060008282540192505081905550816002600083815260200190815260200160002060006101000a81548173ffffffffffffffffffffffffffffffffffffffff021916908373ffffffffffffffffffffffffffffffffffffffff160217905550808273ffffffffffffffffffffffffffffffffffffffff168473ffffffffffffffffffffffffffffffffffffffff167fddf252ad1be2c89b69c2b068fc378daa952ba7f163c4a11628f55a4df523b3ef60405160405180910390a46115d083838360016118ba565b505050565b60006002600083815260200190815260200160002060009054906101000a900473ffffffffffffffffffffffffffffffffffffffff169050919050565b8173ffffffffffffffffffffffffffffffffffffffff168373ffffffffffffffffffffffffffffffffffffffff161415611681576040517f08c379a0000000000000000000000000000000000000000000000000000000008152600401611678906126b3565b60405180910390fd5b80600560008573ffffffffffffffffffffffffffffffffffffffff1673ffffffffffffffffffffffffffffffffffffffff16815260200190815260200160002060008473ffffffffffffffffffffffffffffffffffffffff1673ffffffffffffffffffffffffffffffffffffffff16815260200190815260200160002060006101000a81548160ff0219169083151502179055508173ffffffffffffffffffffffffffffffffffffffff168373ffffffffffffffffffffffffffffffffffffffff167f17307eab39ab6107e8899845ad3d59bd9653f200f220920489ca2b5937696c31836040516117729190612580565b60405180910390a3505050565b61178a8484846112db565b611796848484846118c0565b6117d5576040517f08c379a00000000000000000000000000000000000000000000000000000000081526004016117cc90612613565b60405180910390fd5b50505050565b60008073ffffffffffffffffffffffffffffffffffffffff166117fd836115d5565b73ffffffffffffffffffffffffffffffffffffffff1614159050919050565b60606040518060400160405280601d81526020017f646174613a6170706c69636174696f6e2f6a736f6e3b6261736536342c000000815250905090565b6118638383611a57565b61187060008484846118c0565b6118af576040517f08c379a00000000000000000000000000000000000000000000000000000000081526004016118a690612613565b60405180910390fd5b505050565b50505050565b50505050565b60006118e18473ffffffffffffffffffffffffffffffffffffffff16611c75565b15611a4a578373ffffffffffffffffffffffffffffffffffffffff1663150b7a0261190a611167565b8786866040518563ffffffff1660e01b815260040161192c9493929190612534565b602060405180830381600087803b15801561194657600080fd5b505af192505050801561197757506040513d601f19601f820116820180604052508101906119749190612025565b60015b6119fa573d80600081146119a7576040519150601f19603f3d011682016040523d82523d6000602084013e6119ac565b606091505b506000815114156119f2576040517f08c379a00000000000000000000000000000000000000000000000000000000081526004016119e990612613565b60405180910390fd5b805181602001fd5b63150b7a0260e01b7bffffffffffffffffffffffffffffffffffffffffffffffffffffffff1916817bffffffffffffffffffffffffffffffffffffffffffffffffffffffff191614915050611a4f565b600190505b949350505050565b600073ffffffffffffffffffffffffffffffffffffffff168273ffffffffffffffffffffffffffffffffffffffff161415611ac7576040517f08c379a0000000000000000000000000000000000000000000000000000000008152600401611abe906126f3565b60405180910390fd5b611ad0816117db565b15611b10576040517f08c379a0000000000000000000000000000000000000000000000000000000008152600401611b0790612653565b60405180910390fd5b611b1e6000838360016118b4565b611b27816117db565b15611b67576040517f08c379a0000000000000000000000000000000000000000000000000000000008152600401611b5e90612653565b60405180910390fd5b6001600360008473ffffffffffffffffffffffffffffffffffffffff1673ffffffffffffffffffffffffffffffffffffffff16815260200190815260200160002060008282540192505081905550816002600083815260200190815260200160002060006101000a81548173ffffffffffffffffffffffffffffffffffffffff021916908373ffffffffffffffffffffffffffffffffffffffff160217905550808273ffffffffffffffffffffffffffffffffffffffff16600073ffffffffffffffffffffffffffffffffffffffff167fddf252ad1be2c89b69c2b068fc378daa952ba7f163c4a11628f55a4df523b3ef60405160405180910390a4611c716000838360016118ba565b5050565b6000808273ffffffffffffffffffffffffffffffffffffffff163b119050919050565b6000611cab611ca6846127dc565b6127b7565b905082815260208101848484011115611cc757611cc6612b92565b5b611cd2848285612a2c565b509392505050565b6000611ced611ce88461280d565b6127b7565b905082815260208101848484011115611d0957611d08612b92565b5b611d14848285612a2c565b509392505050565b600081359050611d2b81612f98565b92915050565b600081359050611d4081612faf565b92915050565b600081359050611d5581612fc6565b92915050565b600081519050611d6a81612fc6565b92915050565b600082601f830112611d8557611d84612b8d565b5b8135611d95848260208601611c98565b91505092915050565b600081359050611dad81612fdd565b92915050565b600081519050611dc281612fdd565b92915050565b600082601f830112611ddd57611ddc612b8d565b5b8135611ded848260208601611cda565b91505092915050565b600081359050611e0581612ff4565b92915050565b600081519050611e1a81612ff4565b92915050565b600081519050611e2f8161300b565b92915050565b600060208284031215611e4b57611e4a612b9c565b5b6000611e5984828501611d1c565b91505092915050565b60008060408385031215611e7957611e78612b9c565b5b6000611e8785828601611d1c565b9250506020611e9885828601611d1c565b9150509250929050565b600080600060608486031215611ebb57611eba612b9c565b5b6000611ec986828701611d1c565b9350506020611eda86828701611d1c565b9250506040611eeb86828701611df6565b9150509250925092565b60008060008060808587031215611f0f57611f0e612b9c565b5b6000611f1d87828801611d1c565b9450506020611f2e87828801611d1c565b9350506040611f3f87828801611df6565b925050606085013567ffffffffffffffff811115611f6057611f5f612b97565b5b611f6c87828801611d70565b91505092959194509250565b60008060408385031215611f8f57611f8e612b9c565b5b6000611f9d85828601611d1c565b9250506020611fae85828601611d31565b9150509250929050565b60008060408385031215611fcf57611fce612b9c565b5b6000611fdd85828601611d1c565b9250506020611fee85828601611df6565b9150509250929050565b60006020828403121561200e5761200d612b9c565b5b600061201c84828501611d46565b91505092915050565b60006020828403121561203b5761203a612b9c565b5b600061204984828501611d5b565b91505092915050565b60006020828403121561206857612067612b9c565b5b600061207684828501611d9e565b91505092915050565b60006020828403121561209557612094612b9c565b5b600082013567ffffffffffffffff8111156120b3576120b2612b97565b5b6120bf84828501611dc8565b91505092915050565b6000602082840312156120de576120dd612b9c565b5b60006120ec84828501611df6565b91505092915050565b600080600080600060a0868803121561211157612110612b9c565b5b600061211f88828901611e20565b955050602061213088828901611db3565b945050604061214188828901611e0b565b935050606061215288828901611e0b565b925050608061216388828901611e20565b9150509295509295909350565b61217981612962565b82525050565b61218881612974565b82525050565b60006121998261283e565b6121a38185612854565b93506121b3818560208601612a3b565b6121bc81612ba1565b840191505092915050565b6121d0816129f6565b82525050565b6121df816129ac565b82525050565b60006121f082612849565b6121fa8185612865565b935061220a818560208601612a3b565b61221381612ba1565b840191505092915050565b600061222982612849565b6122338185612876565b9350612243818560208601612a3b565b80840191505092915050565b600061225c602d83612865565b915061226782612bb2565b604082019050919050565b600061227f600983612876565b915061228a82612c01565b600982019050919050565b60006122a2603283612865565b91506122ad82612c2a565b604082019050919050565b60006122c5603d83612876565b91506122d082612c79565b603d82019050919050565b60006122e8602583612865565b91506122f382612cc8565b604082019050919050565b600061230b601c83612865565b915061231682612d17565b602082019050919050565b600061232e602083612865565b915061233982612d40565b602082019050919050565b6000612351602483612865565b915061235c82612d69565b604082019050919050565b6000612374601983612865565b915061237f82612db8565b602082019050919050565b6000612397602983612865565b91506123a282612de1565b604082019050919050565b60006123ba600283612876565b91506123c582612e30565b600282019050919050565b60006123dd602083612865565b91506123e882612e59565b602082019050919050565b6000612400604083612876565b915061240b82612e82565b604082019050919050565b6000612423601883612865565b915061242e82612ed1565b602082019050919050565b6000612446602183612865565b915061245182612efa565b604082019050919050565b6000612469603d83612865565b915061247482612f49565b604082019050919050565b612488816129d6565b82525050565b600061249a828461221e565b915081905092915050565b60006124b1828561221e565b91506124bd828461221e565b91508190509392505050565b60006124d482612272565b91506124e0828561221e565b91506124eb826122b8565b91506124f6826123f3565b9150612502828461221e565b915061250d826123ad565b91508190509392505050565b600060208201905061252e6000830184612170565b92915050565b60006080820190506125496000830187612170565b6125566020830186612170565b612563604083018561247f565b8181036060830152612575818461218e565b905095945050505050565b6000602082019050612595600083018461217f565b92915050565b60006020820190506125b060008301846121c7565b92915050565b60006020820190506125cb60008301846121d6565b92915050565b600060208201905081810360008301526125eb81846121e5565b905092915050565b6000602082019050818103600083015261260c8161224f565b9050919050565b6000602082019050818103600083015261262c81612295565b9050919050565b6000602082019050818103600083015261264c816122db565b9050919050565b6000602082019050818103600083015261266c816122fe565b9050919050565b6000602082019050818103600083015261268c81612321565b9050919050565b600060208201905081810360008301526126ac81612344565b9050919050565b600060208201905081810360008301526126cc81612367565b9050919050565b600060208201905081810360008301526126ec8161238a565b9050919050565b6000602082019050818103600083015261270c816123d0565b9050919050565b6000602082019050818103600083015261272c81612416565b9050919050565b6000602082019050818103600083015261274c81612439565b9050919050565b6000602082019050818103600083015261276c8161245c565b9050919050565b6000602082019050612788600083018461247f565b92915050565b60006040820190506127a3600083018561247f565b6127b060208301846121d6565b9392505050565b60006127c16127d2565b90506127cd8282612aa0565b919050565b6000604051905090565b600067ffffffffffffffff8211156127f7576127f6612b5e565b5b61280082612ba1565b9050602081019050919050565b600067ffffffffffffffff82111561282857612827612b5e565b5b61283182612ba1565b9050602081019050919050565b600081519050919050565b600081519050919050565b600082825260208201905092915050565b600082825260208201905092915050565b600081905092915050565b600061288c826129d6565b9150612897836129d6565b9250827fffffffffffffffffffffffffffffffffffffffffffffffffffffffffffffffff038211156128cc576128cb612ad1565b5b828201905092915050565b60006128e2826129d6565b91506128ed836129d6565b9250826128fd576128fc612b00565b5b828204905092915050565b6000612913826129d6565b915061291e836129d6565b9250817fffffffffffffffffffffffffffffffffffffffffffffffffffffffffffffffff048311821515161561295757612956612ad1565b5b828202905092915050565b600061296d826129b6565b9050919050565b60008115159050919050565b60007fffffffff0000000000000000000000000000000000000000000000000000000082169050919050565b6000819050919050565b600073ffffffffffffffffffffffffffffffffffffffff82169050919050565b6000819050919050565b600069ffffffffffffffffffff82169050919050565b6000612a0182612a08565b9050919050565b6000612a1382612a1a565b9050919050565b6000612a25826129b6565b9050919050565b82818337600083830152505050565b60005b83811015612a59578082015181840152602081019050612a3e565b83811115612a68576000848401525b50505050565b60006002820490506001821680612a8657607f821691505b60208210811415612a9a57612a99612b2f565b5b50919050565b612aa982612ba1565b810181811067ffffffffffffffff82111715612ac857612ac7612b5e565b5b80604052505050565b7f4e487b7100000000000000000000000000000000000000000000000000000000600052601160045260246000fd5b7f4e487b7100000000000000000000000000000000000000000000000000000000600052601260045260246000fd5b7f4e487b7100000000000000000000000000000000000000000000000000000000600052602260045260246000fd5b7f4e487b7100000000000000000000000000000000000000000000000000000000600052604160045260246000fd5b600080fd5b600080fd5b600080fd5b600080fd5b6000601f19601f8301169050919050565b7f4552433732313a2063616c6c6572206973206e6f7420746f6b656e206f776e6560008201527f72206f7220617070726f76656400000000000000000000000000000000000000602082015250565b7f7b226e616d65223a220000000000000000000000000000000000000000000000600082015250565b7f4552433732313a207472616e7366657220746f206e6f6e20455243373231526560008201527f63656976657220696d706c656d656e7465720000000000000000000000000000602082015250565b7f222c20226465736372697074696f6e223a22416e204e4654207468617420636860008201527f616e676573206f6e2074686520436861696e4c696e6b2046656564222c000000602082015250565b7f4552433732313a207472616e736665722066726f6d20696e636f72726563742060008201527f6f776e6572000000000000000000000000000000000000000000000000000000602082015250565b7f4552433732313a20746f6b656e20616c7265616479206d696e74656400000000600082015250565b7f55524920717565727920666f72206e6f6e6578697374616e636520746f6b656e600082015250565b7f4552433732313a207472616e7366657220746f20746865207a65726f2061646460008201527f7265737300000000000000000000000000000000000000000000000000000000602082015250565b7f4552433732313a20617070726f766520746f2063616c6c657200000000000000600082015250565b7f4552433732313a2061646472657373207a65726f206973206e6f74206120766160008201527f6c6964206f776e65720000000000000000000000000000000000000000000000602082015250565b7f227d000000000000000000000000000000000000000000000000000000000000600082015250565b7f4552433732313a206d696e7420746f20746865207a65726f2061646472657373600082015250565b7f2261747472696275746573223a5b7b2274726169745f74797065223a22636f6f60008201527f6c6e657373222c202276616c7565223a3130307d5d2c2022696d616765223a22602082015250565b7f4552433732313a20696e76616c696420746f6b656e2049440000000000000000600082015250565b7f4552433732313a20617070726f76616c20746f2063757272656e74206f776e6560008201527f7200000000000000000000000000000000000000000000000000000000000000602082015250565b7f4552433732313a20617070726f76652063616c6c6572206973206e6f7420746f60008201527f6b656e206f776e6572206f7220617070726f76656420666f7220616c6c000000602082015250565b612fa181612962565b8114612fac57600080fd5b50565b612fb881612974565b8114612fc357600080fd5b50565b612fcf81612980565b8114612fda57600080fd5b50565b612fe6816129ac565b8114612ff157600080fd5b50565b612ffd816129d6565b811461300857600080fd5b50565b613014816129e0565b811461301f57600080fd5b5056fe4142434445464748494a4b4c4d4e4f505152535455565758595a6162636465666768696a6b6c6d6e6f707172737475767778797a303132333435363738392b2fa26469706673582212204e7b0bf30cef43dba64bfadbf5904118f046a85541bc74d11e81213602bbd77064736f6c634300080700334142434445464748494a4b4c4d4e4f505152535455565758595a6162636465666768696a6b6c6d6e6f707172737475767778797a303132333435363738392b2f",
  "devdoc": {
    "kind": "dev",
    "methods": {
      "approve(address,uint256)": {
        "details": "See {IERC721-approve}."
      },
      "balanceOf(address)": {
        "details": "See {IERC721-balanceOf}."
      },
      "getApproved(uint256)": {
        "details": "See {IERC721-getApproved}."
      },
      "isApprovedForAll(address,address)": {
        "details": "See {IERC721-isApprovedForAll}."
      },
      "name()": {
        "details": "See {IERC721Metadata-name}."
      },
      "ownerOf(uint256)": {
        "details": "See {IERC721-ownerOf}."
      },
      "safeTransferFrom(address,address,uint256)": {
        "details": "See {IERC721-safeTransferFrom}."
      },
      "safeTransferFrom(address,address,uint256,bytes)": {
        "details": "See {IERC721-safeTransferFrom}."
      },
      "setApprovalForAll(address,bool)": {
        "details": "See {IERC721-setApprovalForAll}."
      },
      "supportsInterface(bytes4)": {
        "details": "See {IERC165-supportsInterface}."
      },
      "symbol()": {
        "details": "See {IERC721Metadata-symbol}."
      },
      "tokenURI(uint256)": {
        "details": "See {IERC721Metadata-tokenURI}."
      },
      "transferFrom(address,address,uint256)": {
        "details": "See {IERC721-transferFrom}."
      }
    },
    "version": 1
  },
  "userdoc": {
    "kind": "user",
    "methods": {},
    "version": 1
  },
  "storageLayout": {
    "storage": [
      {
        "astId": 1296,
        "contract": "contracts/DynamicNft.sol:DynamicNft",
        "label": "_name",
        "offset": 0,
        "slot": "0",
        "type": "t_string_storage"
      },
      {
        "astId": 1298,
        "contract": "contracts/DynamicNft.sol:DynamicNft",
        "label": "_symbol",
        "offset": 0,
        "slot": "1",
        "type": "t_string_storage"
      },
      {
        "astId": 1302,
        "contract": "contracts/DynamicNft.sol:DynamicNft",
        "label": "_owners",
        "offset": 0,
        "slot": "2",
        "type": "t_mapping(t_uint256,t_address)"
      },
      {
        "astId": 1306,
        "contract": "contracts/DynamicNft.sol:DynamicNft",
        "label": "_balances",
        "offset": 0,
        "slot": "3",
        "type": "t_mapping(t_address,t_uint256)"
      },
      {
        "astId": 1310,
        "contract": "contracts/DynamicNft.sol:DynamicNft",
        "label": "_tokenApprovals",
        "offset": 0,
        "slot": "4",
        "type": "t_mapping(t_uint256,t_address)"
      },
      {
        "astId": 1316,
        "contract": "contracts/DynamicNft.sol:DynamicNft",
        "label": "_operatorApprovals",
        "offset": 0,
        "slot": "5",
        "type": "t_mapping(t_address,t_mapping(t_address,t_bool))"
      },
      {
        "astId": 4096,
        "contract": "contracts/DynamicNft.sol:DynamicNft",
        "label": "s_tokenCounter",
        "offset": 0,
        "slot": "6",
        "type": "t_uint256"
      },
      {
        "astId": 4098,
        "contract": "contracts/DynamicNft.sol:DynamicNft",
        "label": "i_lowSvg",
        "offset": 0,
        "slot": "7",
        "type": "t_string_storage"
      },
      {
        "astId": 4100,
        "contract": "contracts/DynamicNft.sol:DynamicNft",
        "label": "i_highSvg",
        "offset": 0,
        "slot": "8",
        "type": "t_string_storage"
      },
      {
        "astId": 4110,
        "contract": "contracts/DynamicNft.sol:DynamicNft",
        "label": "s_tokenIdToHighValue",
        "offset": 0,
        "slot": "9",
        "type": "t_mapping(t_uint256,t_int256)"
      }
    ],
    "types": {
      "t_address": {
        "encoding": "inplace",
        "label": "address",
        "numberOfBytes": "20"
      },
      "t_bool": {
        "encoding": "inplace",
        "label": "bool",
        "numberOfBytes": "1"
      },
      "t_int256": {
        "encoding": "inplace",
        "label": "int256",
        "numberOfBytes": "32"
      },
      "t_mapping(t_address,t_bool)": {
        "encoding": "mapping",
        "key": "t_address",
        "label": "mapping(address => bool)",
        "numberOfBytes": "32",
        "value": "t_bool"
      },
      "t_mapping(t_address,t_mapping(t_address,t_bool))": {
        "encoding": "mapping",
        "key": "t_address",
        "label": "mapping(address => mapping(address => bool))",
        "numberOfBytes": "32",
        "value": "t_mapping(t_address,t_bool)"
      },
      "t_mapping(t_address,t_uint256)": {
        "encoding": "mapping",
        "key": "t_address",
        "label": "mapping(address => uint256)",
        "numberOfBytes": "32",
        "value": "t_uint256"
      },
      "t_mapping(t_uint256,t_address)": {
        "encoding": "mapping",
        "key": "t_uint256",
        "label": "mapping(uint256 => address)",
        "numberOfBytes": "32",
        "value": "t_address"
      },
      "t_mapping(t_uint256,t_int256)": {
        "encoding": "mapping",
        "key": "t_uint256",
        "label": "mapping(uint256 => int256)",
        "numberOfBytes": "32",
        "value": "t_int256"
      },
      "t_string_storage": {
        "encoding": "bytes",
        "label": "string",
        "numberOfBytes": "32"
      },
      "t_uint256": {
        "encoding": "inplace",
        "label": "uint256",
        "numberOfBytes": "32"
      }
    }
  }
}