{
  "address": "0x12416644789e206BA1F37CD8239158144708A12C",
  "abi": [
    {
      "inputs": [
        {
          "internalType": "address",
          "name": "vrfCoordinatorV2",
          "type": "address"
        },
        {
          "internalType": "bytes32",
          "name": "gaslane",
          "type": "bytes32"
        },
        {
          "internalType": "uint64",
          "name": "subscription_id",
          "type": "uint64"
        },
        {
          "internalType": "uint32",
          "name": "gasLimit",
          "type": "uint32"
        },
        {
          "internalType": "string[3]",
          "name": "tokenUris",
          "type": "string[3]"
        },
        {
          "internalType": "uint256",
          "name": "mintFee",
          "type": "uint256"
        }
      ],
      "stateMutability": "nonpayable",
      "type": "constructor"
    },
    {
      "inputs": [
        {
          "internalType": "address",
          "name": "have",
          "type": "address"
        },
        {
          "internalType": "address",
          "name": "want",
          "type": "address"
        }
      ],
      "name": "OnlyCoordinatorCanFulfill",
      "type": "error"
    },
    {
      "inputs": [],
      "name": "RandomIpfsNft__AlreadyInitialized",
      "type": "error"
    },
    {
      "inputs": [],
      "name": "RandomIpfsNft__NeedMoreEth",
      "type": "error"
    },
    {
      "inputs": [],
      "name": "RandomIpfsNft__OutOfRangeBounds",
      "type": "error"
    },
    {
      "inputs": [],
      "name": "RandomIpfsNft__TransactionFailed",
      "type": "error"
    },
    {
      "anonymous": false,
      "inputs": [
        {
          "indexed": true,
          "internalType": "address",
          "name": "owner",
          "type": "address"
        },
        {
          "indexed": true,
          "internalType": "address",
          "name": "approved",
          "type": "address"
        },
        {
          "indexed": true,
          "internalType": "uint256",
          "name": "tokenId",
          "type": "uint256"
        }
      ],
      "name": "Approval",
      "type": "event"
    },
    {
      "anonymous": false,
      "inputs": [
        {
          "indexed": true,
          "internalType": "address",
          "name": "owner",
          "type": "address"
        },
        {
          "indexed": true,
          "internalType": "address",
          "name": "operator",
          "type": "address"
        },
        {
          "indexed": false,
          "internalType": "bool",
          "name": "approved",
          "type": "bool"
        }
      ],
      "name": "ApprovalForAll",
      "type": "event"
    },
    {
      "anonymous": false,
      "inputs": [
        {
          "indexed": false,
          "internalType": "enum RandomIpfsNft.Breed",
          "name": "dogBreed",
          "type": "uint8"
        },
        {
          "indexed": false,
          "internalType": "address",
          "name": "minter",
          "type": "address"
        }
      ],
      "name": "NftMinted",
      "type": "event"
    },
    {
      "anonymous": false,
      "inputs": [
        {
          "indexed": true,
          "internalType": "uint256",
          "name": "requestId",
          "type": "uint256"
        },
        {
          "indexed": false,
          "internalType": "address",
          "name": "requester",
          "type": "address"
        }
      ],
      "name": "NftRequested",
      "type": "event"
    },
    {
      "anonymous": false,
      "inputs": [
        {
          "indexed": true,
          "internalType": "address",
          "name": "previousOwner",
          "type": "address"
        },
        {
          "indexed": true,
          "internalType": "address",
          "name": "newOwner",
          "type": "address"
        }
      ],
      "name": "OwnershipTransferred",
      "type": "event"
    },
    {
      "anonymous": false,
      "inputs": [
        {
          "indexed": true,
          "internalType": "address",
          "name": "from",
          "type": "address"
        },
        {
          "indexed": true,
          "internalType": "address",
          "name": "to",
          "type": "address"
        },
        {
          "indexed": true,
          "internalType": "uint256",
          "name": "tokenId",
          "type": "uint256"
        }
      ],
      "name": "Transfer",
      "type": "event"
    },
    {
      "inputs": [
        {
          "internalType": "address",
          "name": "to",
          "type": "address"
        },
        {
          "internalType": "uint256",
          "name": "tokenId",
          "type": "uint256"
        }
      ],
      "name": "approve",
      "outputs": [],
      "stateMutability": "nonpayable",
      "type": "function"
    },
    {
      "inputs": [
        {
          "internalType": "address",
          "name": "owner",
          "type": "address"
        }
      ],
      "name": "balanceOf",
      "outputs": [
        {
          "internalType": "uint256",
          "name": "",
          "type": "uint256"
        }
      ],
      "stateMutability": "view",
      "type": "function"
    },
    {
      "inputs": [
        {
          "internalType": "uint256",
          "name": "tokenId",
          "type": "uint256"
        }
      ],
      "name": "getApproved",
      "outputs": [
        {
          "internalType": "address",
          "name": "",
          "type": "address"
        }
      ],
      "stateMutability": "view",
      "type": "function"
    },
    {
      "inputs": [
        {
          "internalType": "uint256",
          "name": "moddedRng",
          "type": "uint256"
        }
      ],
      "name": "getBreedFromModdedRng",
      "outputs": [
        {
          "internalType": "enum RandomIpfsNft.Breed",
          "name": "",
          "type": "uint8"
        }
      ],
      "stateMutability": "pure",
      "type": "function"
    },
    {
      "inputs": [],
      "name": "getChanceArray",
      "outputs": [
        {
          "internalType": "uint256[3]",
          "name": "",
          "type": "uint256[3]"
        }
      ],
      "stateMutability": "pure",
      "type": "function"
    },
    {
      "inputs": [],
      "name": "getInitailized",
      "outputs": [
        {
          "internalType": "bool",
          "name": "",
          "type": "bool"
        }
      ],
      "stateMutability": "view",
      "type": "function"
    },
    {
      "inputs": [],
      "name": "getMintFee",
      "outputs": [
        {
          "internalType": "uint256",
          "name": "",
          "type": "uint256"
        }
      ],
      "stateMutability": "view",
      "type": "function"
    },
    {
      "inputs": [],
      "name": "getTokenCounter",
      "outputs": [
        {
          "internalType": "uint256",
          "name": "",
          "type": "uint256"
        }
      ],
      "stateMutability": "view",
      "type": "function"
    },
    {
      "inputs": [
        {
          "internalType": "uint256",
          "name": "index",
          "type": "uint256"
        }
      ],
      "name": "getTokenUris",
      "outputs": [
        {
          "internalType": "string",
          "name": "",
          "type": "string"
        }
      ],
      "stateMutability": "view",
      "type": "function"
    },
    {
      "inputs": [
        {
          "internalType": "address",
          "name": "owner",
          "type": "address"
        },
        {
          "internalType": "address",
          "name": "operator",
          "type": "address"
        }
      ],
      "name": "isApprovedForAll",
      "outputs": [
        {
          "internalType": "bool",
          "name": "",
          "type": "bool"
        }
      ],
      "stateMutability": "view",
      "type": "function"
    },
    {
      "inputs": [],
      "name": "name",
      "outputs": [
        {
          "internalType": "string",
          "name": "",
          "type": "string"
        }
      ],
      "stateMutability": "view",
      "type": "function"
    },
    {
      "inputs": [],
      "name": "owner",
      "outputs": [
        {
          "internalType": "address",
          "name": "",
          "type": "address"
        }
      ],
      "stateMutability": "view",
      "type": "function"
    },
    {
      "inputs": [
        {
          "internalType": "uint256",
          "name": "tokenId",
          "type": "uint256"
        }
      ],
      "name": "ownerOf",
      "outputs": [
        {
          "internalType": "address",
          "name": "",
          "type": "address"
        }
      ],
      "stateMutability": "view",
      "type": "function"
    },
    {
      "inputs": [
        {
          "internalType": "uint256",
          "name": "requestId",
          "type": "uint256"
        },
        {
          "internalType": "uint256[]",
          "name": "randomWords",
          "type": "uint256[]"
        }
      ],
      "name": "rawFulfillRandomWords",
      "outputs": [],
      "stateMutability": "nonpayable",
      "type": "function"
    },
    {
      "inputs": [],
      "name": "renounceOwnership",
      "outputs": [],
      "stateMutability": "nonpayable",
      "type": "function"
    },
    {
      "inputs": [],
      "name": "rqstNFT",
      "outputs": [
        {
          "internalType": "uint256",
          "name": "requestId",
          "type": "uint256"
        }
      ],
      "stateMutability": "payable",
      "type": "function"
    },
    {
      "inputs": [
        {
          "internalType": "uint256",
          "name": "",
          "type": "uint256"
        }
      ],
      "name": "s_requestIdToSender",
      "outputs": [
        {
          "internalType": "address",
          "name": "",
          "type": "address"
        }
      ],
      "stateMutability": "view",
      "type": "function"
    },
    {
      "inputs": [
        {
          "internalType": "address",
          "name": "from",
          "type": "address"
        },
        {
          "internalType": "address",
          "name": "to",
          "type": "address"
        },
        {
          "internalType": "uint256",
          "name": "tokenId",
          "type": "uint256"
        }
      ],
      "name": "safeTransferFrom",
      "outputs": [],
      "stateMutability": "nonpayable",
      "type": "function"
    },
    {
      "inputs": [
        {
          "internalType": "address",
          "name": "from",
          "type": "address"
        },
        {
          "internalType": "address",
          "name": "to",
          "type": "address"
        },
        {
          "internalType": "uint256",
          "name": "tokenId",
          "type": "uint256"
        },
        {
          "internalType": "bytes",
          "name": "data",
          "type": "bytes"
        }
      ],
      "name": "safeTransferFrom",
      "outputs": [],
      "stateMutability": "nonpayable",
      "type": "function"
    },
    {
      "inputs": [
        {
          "internalType": "address",
          "name": "operator",
          "type": "address"
        },
        {
          "internalType": "bool",
          "name": "approved",
          "type": "bool"
        }
      ],
      "name": "setApprovalForAll",
      "outputs": [],
      "stateMutability": "nonpayable",
      "type": "function"
    },
    {
      "inputs": [
        {
          "internalType": "bool",
          "name": "failed",
          "type": "bool"
        }
      ],
      "name": "setTransactionFailed",
      "outputs": [],
      "stateMutability": "nonpayable",
      "type": "function"
    },
    {
      "inputs": [
        {
          "internalType": "bytes4",
          "name": "interfaceId",
          "type": "bytes4"
        }
      ],
      "name": "supportsInterface",
      "outputs": [
        {
          "internalType": "bool",
          "name": "",
          "type": "bool"
        }
      ],
      "stateMutability": "view",
      "type": "function"
    },
    {
      "inputs": [],
      "name": "symbol",
      "outputs": [
        {
          "internalType": "string",
          "name": "",
          "type": "string"
        }
      ],
      "stateMutability": "view",
      "type": "function"
    },
    {
      "inputs": [
        {
          "internalType": "uint256",
          "name": "tokenId",
          "type": "uint256"
        }
      ],
      "name": "tokenURI",
      "outputs": [
        {
          "internalType": "string",
          "name": "",
          "type": "string"
        }
      ],
      "stateMutability": "view",
      "type": "function"
    },
    {
      "inputs": [
        {
          "internalType": "address",
          "name": "from",
          "type": "address"
        },
        {
          "internalType": "address",
          "name": "to",
          "type": "address"
        },
        {
          "internalType": "uint256",
          "name": "tokenId",
          "type": "uint256"
        }
      ],
      "name": "transferFrom",
      "outputs": [],
      "stateMutability": "nonpayable",
      "type": "function"
    },
    {
      "inputs": [
        {
          "internalType": "address",
          "name": "newOwner",
          "type": "address"
        }
      ],
      "name": "transferOwnership",
      "outputs": [],
      "stateMutability": "nonpayable",
      "type": "function"
    },
    {
      "inputs": [],
      "name": "withdraw",
      "outputs": [],
      "stateMutability": "nonpayable",
      "type": "function"
    }
  ],
  "transactionHash": "0xc230c425fc7fea18c88dec41041e10903da3e6ac234cb1f8c88e31ff1a2c6965",
  "args": [
    "0x8103B0A8A00be2DDC778e6e7eaa21791Cd364625",
    "0x474e34a077df58807dbe9c96d3c009b23b3c6d0cce433e59bbf5b34f823bc56c",
    "1646",
    "500000",
    [
      "ipfs://QmQ29qcsnsiVYhEGdPHAQ9T2wkkZGTRHnbr7yTc5AaT5E4",
      "ipfs://QmU2mn5rqej3CJEQLSZyHE2xHWmbE1qemMnK9fBkRT1rV1",
      "ipfs://QmYNbAsLBkPMPuUsTbhjn6iS6WpyaRXGajECVZr8tZZmRK"
    ],
    "10000000000000000"
  ],
  "numDeployments": 1,
  "solcInputHash": "878842d1cfdd776dfb1c2a53a61f0cb3",
  "bytecode": "0x6101406040523480156200001257600080fd5b506040516200459e3803806200459e83398181016040528101906200003891906200066a565b6040518060400160405280600f81526020017f52616e646f6d2049504653204e667400000000000000000000000000000000008152506040518060400160405280600381526020017f444f470000000000000000000000000000000000000000000000000000000000815250878073ffffffffffffffffffffffffffffffffffffffff1660808173ffffffffffffffffffffffffffffffffffffffff1660601b81525050508160009080519060200190620000f592919062000331565b5080600190805190602001906200010e92919062000331565b5050506200013162000125620001e960201b60201c565b620001f160201b60201c565b8573ffffffffffffffffffffffffffffffffffffffff166101008173ffffffffffffffffffffffffffffffffffffffff1660601b815250508460a081815250508367ffffffffffffffff1660c08167ffffffffffffffff1660c01b815250508263ffffffff1660e08163ffffffff1660e01b8152505081600a906003620001ba929190620003c2565b50806101208181525050620001d582620002b760201b60201c565b6000600981905550505050505050620009c5565b600033905090565b6000600760009054906101000a900473ffffffffffffffffffffffffffffffffffffffff16905081600760006101000a81548173ffffffffffffffffffffffffffffffffffffffff021916908373ffffffffffffffffffffffffffffffffffffffff1602179055508173ffffffffffffffffffffffffffffffffffffffff168173ffffffffffffffffffffffffffffffffffffffff167f8be0079c531659141344cd1fd0a4f28419497f9722a3daafe3b4186f6b6457e060405160405180910390a35050565b600b60009054906101000a900460ff1615620002ff576040517fddf8bf7000000000000000000000000000000000000000000000000000000000815260040160405180910390fd5b80600a90600362000312929190620003c2565b506001600b60006101000a81548160ff02191690831515021790555050565b8280546200033f906200084f565b90600052602060002090601f016020900481019282620003635760008555620003af565b82601f106200037e57805160ff1916838001178555620003af565b82800160010185558215620003af579182015b82811115620003ae57825182559160200191906001019062000391565b5b509050620003be919062000429565b5090565b82805482825590600052602060002090810192821562000416579160200282015b82811115620004155782518290805190602001906200040492919062000331565b5091602001919060010190620003e3565b5b50905062000425919062000448565b5090565b5b80821115620004445760008160009055506001016200042a565b5090565b5b808211156200046c576000818162000462919062000470565b5060010162000449565b5090565b5080546200047e906200084f565b6000825580601f10620004925750620004b3565b601f016020900490600052602060002090810190620004b2919062000429565b5b50565b6000620004cd620004c7846200074e565b62000725565b90508082856020860282011115620004ea57620004e96200091e565b5b60005b858110156200053f57815167ffffffffffffffff81111562000514576200051362000919565b5b808601620005238982620005f2565b85526020850194506020840193505050600181019050620004ed565b5050509392505050565b6000620005606200055a8462000777565b62000725565b9050828152602081018484840111156200057f576200057e62000923565b5b6200058c84828562000819565b509392505050565b600081519050620005a58162000943565b92915050565b600082601f830112620005c357620005c262000919565b5b6003620005d2848285620004b6565b91505092915050565b600081519050620005ec816200095d565b92915050565b600082601f8301126200060a576200060962000919565b5b81516200061c84826020860162000549565b91505092915050565b600081519050620006368162000977565b92915050565b6000815190506200064d8162000991565b92915050565b6000815190506200066481620009ab565b92915050565b60008060008060008060c087890312156200068a57620006896200092d565b5b60006200069a89828a0162000594565b9650506020620006ad89828a01620005db565b9550506040620006c089828a0162000653565b9450506060620006d389828a016200063c565b935050608087015167ffffffffffffffff811115620006f757620006f662000928565b5b6200070589828a01620005ab565b92505060a06200071889828a0162000625565b9150509295509295509295565b60006200073162000744565b90506200073f828262000885565b919050565b6000604051905090565b600067ffffffffffffffff8211156200076c576200076b620008ea565b5b602082029050919050565b600067ffffffffffffffff821115620007955762000794620008ea565b5b620007a08262000932565b9050602081019050919050565b6000620007ba82620007cb565b9050919050565b6000819050919050565b600073ffffffffffffffffffffffffffffffffffffffff82169050919050565b6000819050919050565b600063ffffffff82169050919050565b600067ffffffffffffffff82169050919050565b60005b83811015620008395780820151818401526020810190506200081c565b8381111562000849576000848401525b50505050565b600060028204905060018216806200086857607f821691505b602082108114156200087f576200087e620008bb565b5b50919050565b620008908262000932565b810181811067ffffffffffffffff82111715620008b257620008b1620008ea565b5b80604052505050565b7f4e487b7100000000000000000000000000000000000000000000000000000000600052602260045260246000fd5b7f4e487b7100000000000000000000000000000000000000000000000000000000600052604160045260246000fd5b600080fd5b600080fd5b600080fd5b600080fd5b600080fd5b6000601f19601f8301169050919050565b6200094e81620007ad565b81146200095a57600080fd5b50565b6200096881620007c1565b81146200097457600080fd5b50565b6200098281620007eb565b81146200098e57600080fd5b50565b6200099c81620007f5565b8114620009a857600080fd5b50565b620009b68162000805565b8114620009c257600080fd5b50565b60805160601c60a05160c05160c01c60e05160e01c6101005160601c61012051613b6f62000a2f60003960008181610c140152610fb901526000610c6e01526000610cee01526000610ccb01526000610caa015260008181610a0b0152610a5f0152613b6f6000f3fe60806040526004361061019c5760003560e01c80636e02007d116100ec578063a22cb4651161008a578063b88d4fde11610064578063b88d4fde146105bb578063c87b56dd146105e4578063e985e9c514610621578063f2fde38b1461065e5761019c565b8063a22cb46514610518578063a36f573b14610541578063a51cccf31461057e5761019c565b80637a5caab3116100c65780637a5caab31461046c5780638da5cb5b14610497578063952c67b2146104c257806395d89b41146104ed5761019c565b80636e02007d146103ed57806370a0823114610418578063715018a6146104555761019c565b806323b872dd116101595780634a03e055116101335780634a03e0551461033e5780635dacf5f41461035c5780636352211e146103875780636ad69a1d146103c45761019c565b806323b872dd146102d55780633ccfd60b146102fe57806342842e0e146103155761019c565b806301ffc9a7146101a157806306fdde03146101de5780630719766514610209578063081812fc14610246578063095ea7b3146102835780631fe543e3146102ac575b600080fd5b3480156101ad57600080fd5b506101c860048036038101906101c39190612a3d565b610687565b6040516101d59190612fe6565b60405180910390f35b3480156101ea57600080fd5b506101f3610769565b6040516102009190613098565b60405180910390f35b34801561021557600080fd5b50610230600480360381019061022b9190612a97565b6107fb565b60405161023d9190613098565b60405180910390f35b34801561025257600080fd5b5061026d60048036038101906102689190612a97565b6108ab565b60405161027a9190612f3b565b60405180910390f35b34801561028f57600080fd5b506102aa60048036038101906102a591906129d0565b6108f1565b005b3480156102b857600080fd5b506102d360048036038101906102ce9190612af1565b610a09565b005b3480156102e157600080fd5b506102fc60048036038101906102f791906128ba565b610ac9565b005b34801561030a57600080fd5b50610313610b29565b005b34801561032157600080fd5b5061033c600480360381019061033791906128ba565b610bf0565b005b610346610c10565b604051610353919061327a565b60405180910390f35b34801561036857600080fd5b50610371610e10565b60405161037e9190612fcb565b60405180910390f35b34801561039357600080fd5b506103ae60048036038101906103a99190612a97565b610e3b565b6040516103bb9190612f3b565b60405180910390f35b3480156103d057600080fd5b506103eb60048036038101906103e69190612a10565b610ec2565b005b3480156103f957600080fd5b50610402610edf565b60405161040f919061327a565b60405180910390f35b34801561042457600080fd5b5061043f600480360381019061043a919061284d565b610ee9565b60405161044c919061327a565b60405180910390f35b34801561046157600080fd5b5061046a610fa1565b005b34801561047857600080fd5b50610481610fb5565b60405161048e919061327a565b60405180910390f35b3480156104a357600080fd5b506104ac610fdd565b6040516104b99190612f3b565b60405180910390f35b3480156104ce57600080fd5b506104d7611007565b6040516104e49190612fe6565b60405180910390f35b3480156104f957600080fd5b5061050261101e565b60405161050f9190613098565b60405180910390f35b34801561052457600080fd5b5061053f600480360381019061053a9190612990565b6110b0565b005b34801561054d57600080fd5b5061056860048036038101906105639190612a97565b6110c6565b6040516105759190612f3b565b60405180910390f35b34801561058a57600080fd5b506105a560048036038101906105a09190612a97565b6110f9565b6040516105b29190613054565b60405180910390f35b3480156105c757600080fd5b506105e260048036038101906105dd919061290d565b6111c5565b005b3480156105f057600080fd5b5061060b60048036038101906106069190612a97565b611227565b6040516106189190613098565b60405180910390f35b34801561062d57600080fd5b506106486004803603810190610643919061287a565b61133a565b6040516106559190612fe6565b60405180910390f35b34801561066a57600080fd5b506106856004803603810190610680919061284d565b6113ce565b005b60007f80ac58cd000000000000000000000000000000000000000000000000000000007bffffffffffffffffffffffffffffffffffffffffffffffffffffffff1916827bffffffffffffffffffffffffffffffffffffffffffffffffffffffff1916148061075257507f5b5e139f000000000000000000000000000000000000000000000000000000007bffffffffffffffffffffffffffffffffffffffffffffffffffffffff1916827bffffffffffffffffffffffffffffffffffffffffffffffffffffffff1916145b80610762575061076182611452565b5b9050919050565b60606000805461077890613511565b80601f01602080910402602001604051908101604052809291908181526020018280546107a490613511565b80156107f15780601f106107c6576101008083540402835291602001916107f1565b820191906000526020600020905b8154815290600101906020018083116107d457829003601f168201915b5050505050905090565b6060600a8281548110610811576108106136aa565b5b90600052602060002001805461082690613511565b80601f016020809104026020016040519081016040528092919081815260200182805461085290613511565b801561089f5780601f106108745761010080835404028352916020019161089f565b820191906000526020600020905b81548152906001019060200180831161088257829003601f168201915b50505050509050919050565b60006108b6826114bc565b6004600083815260200190815260200160002060009054906101000a900473ffffffffffffffffffffffffffffffffffffffff169050919050565b60006108fc82610e3b565b90508073ffffffffffffffffffffffffffffffffffffffff168373ffffffffffffffffffffffffffffffffffffffff16141561096d576040517f08c379a00000000000000000000000000000000000000000000000000000000081526004016109649061323a565b60405180910390fd5b8073ffffffffffffffffffffffffffffffffffffffff1661098c611507565b73ffffffffffffffffffffffffffffffffffffffff1614806109bb57506109ba816109b5611507565b61133a565b5b6109fa576040517f08c379a00000000000000000000000000000000000000000000000000000000081526004016109f19061325a565b60405180910390fd5b610a04838361150f565b505050565b7f000000000000000000000000000000000000000000000000000000000000000073ffffffffffffffffffffffffffffffffffffffff163373ffffffffffffffffffffffffffffffffffffffff1614610abb57337f00000000000000000000000000000000000000000000000000000000000000006040517f1cf993f4000000000000000000000000000000000000000000000000000000008152600401610ab2929190612f56565b60405180910390fd5b610ac582826115c8565b5050565b610ada610ad4611507565b82611767565b610b19576040517f08c379a0000000000000000000000000000000000000000000000000000000008152600401610b10906130ba565b60405180910390fd5b610b248383836117fc565b505050565b610b31611af6565b60003373ffffffffffffffffffffffffffffffffffffffff1647604051610b5790612f26565b60006040518083038185875af1925050503d8060008114610b94576040519150601f19603f3d011682016040523d82523d6000602084013e610b99565b606091505b50509050801580610bb65750600b60019054906101000a900460ff165b15610bed576040517f47a2918400000000000000000000000000000000000000000000000000000000815260040160405180910390fd5b50565b610c0b838383604051806020016040528060008152506111c5565b505050565b60007f0000000000000000000000000000000000000000000000000000000000000000341015610c6c576040517fbd9aefd500000000000000000000000000000000000000000000000000000000815260040160405180910390fd5b7f000000000000000000000000000000000000000000000000000000000000000073ffffffffffffffffffffffffffffffffffffffff16635d3b1d307f00000000000000000000000000000000000000000000000000000000000000007f000000000000000000000000000000000000000000000000000000000000000060037f000000000000000000000000000000000000000000000000000000000000000060016040518663ffffffff1660e01b8152600401610d2f959493929190613001565b602060405180830381600087803b158015610d4957600080fd5b505af1158015610d5d573d6000803e3d6000fd5b505050506040513d601f19601f82011682018060405250810190610d819190612ac4565b9050336008600083815260200190815260200160002060006101000a81548173ffffffffffffffffffffffffffffffffffffffff021916908373ffffffffffffffffffffffffffffffffffffffff160217905550807ff873236e6cc0ecc5be1a9a35c95ee5b8d1ac4cc7bfef0cc5060391d6cc98e26b33604051610e059190612f3b565b60405180910390a290565b610e186125fc565b6040518060600160405280600a8152602001602881526020016064815250905090565b600080610e4783611b74565b9050600073ffffffffffffffffffffffffffffffffffffffff168173ffffffffffffffffffffffffffffffffffffffff161415610eb9576040517f08c379a0000000000000000000000000000000000000000000000000000000008152600401610eb09061321a565b60405180910390fd5b80915050919050565b80600b60016101000a81548160ff02191690831515021790555050565b6000600954905090565b60008073ffffffffffffffffffffffffffffffffffffffff168273ffffffffffffffffffffffffffffffffffffffff161415610f5a576040517f08c379a0000000000000000000000000000000000000000000000000000000008152600401610f519061319a565b60405180910390fd5b600360008373ffffffffffffffffffffffffffffffffffffffff1673ffffffffffffffffffffffffffffffffffffffff168152602001908152602001600020549050919050565b610fa9611af6565b610fb36000611bb1565b565b60007f0000000000000000000000000000000000000000000000000000000000000000905090565b6000600760009054906101000a900473ffffffffffffffffffffffffffffffffffffffff16905090565b6000600b60009054906101000a900460ff16905090565b60606001805461102d90613511565b80601f016020809104026020016040519081016040528092919081815260200182805461105990613511565b80156110a65780601f1061107b576101008083540402835291602001916110a6565b820191906000526020600020905b81548152906001019060200180831161108957829003601f168201915b5050505050905090565b6110c26110bb611507565b8383611c77565b5050565b60086020528060005260406000206000915054906101000a900473ffffffffffffffffffffffffffffffffffffffff1681565b60008060009050600061110a610e10565b905060005b600381101561118d5782851015801561113e5750818160038110611136576111356136aa565b5b602002015185105b15611160578060028111156111565761115561364c565b5b93505050506111c0565b818160038110611173576111726136aa565b5b60200201519250808061118590613574565b91505061110f565b506040517f54d88f0700000000000000000000000000000000000000000000000000000000815260040160405180910390fd5b919050565b6111d66111d0611507565b83611767565b611215576040517f08c379a000000000000000000000000000000000000000000000000000000000815260040161120c906130ba565b60405180910390fd5b61122184848484611de4565b50505050565b6060611232826114bc565b600060066000848152602001908152602001600020805461125290613511565b80601f016020809104026020016040519081016040528092919081815260200182805461127e90613511565b80156112cb5780601f106112a0576101008083540402835291602001916112cb565b820191906000526020600020905b8154815290600101906020018083116112ae57829003601f168201915b5050505050905060006112dc611e40565b90506000815114156112f2578192505050611335565b60008251111561132757808260405160200161130f929190612f02565b60405160208183030381529060405292505050611335565b61133084611e57565b925050505b919050565b6000600560008473ffffffffffffffffffffffffffffffffffffffff1673ffffffffffffffffffffffffffffffffffffffff16815260200190815260200160002060008373ffffffffffffffffffffffffffffffffffffffff1673ffffffffffffffffffffffffffffffffffffffff16815260200190815260200160002060009054906101000a900460ff16905092915050565b6113d6611af6565b600073ffffffffffffffffffffffffffffffffffffffff168173ffffffffffffffffffffffffffffffffffffffff161415611446576040517f08c379a000000000000000000000000000000000000000000000000000000000815260040161143d906130fa565b60405180910390fd5b61144f81611bb1565b50565b60007f01ffc9a7000000000000000000000000000000000000000000000000000000007bffffffffffffffffffffffffffffffffffffffffffffffffffffffff1916827bffffffffffffffffffffffffffffffffffffffffffffffffffffffff1916149050919050565b6114c581611ebf565b611504576040517f08c379a00000000000000000000000000000000000000000000000000000000081526004016114fb9061321a565b60405180910390fd5b50565b600033905090565b816004600083815260200190815260200160002060006101000a81548173ffffffffffffffffffffffffffffffffffffffff021916908373ffffffffffffffffffffffffffffffffffffffff160217905550808273ffffffffffffffffffffffffffffffffffffffff1661158283610e3b565b73ffffffffffffffffffffffffffffffffffffffff167f8c5be1e5ebec7d5bd14f71427d1e84f3dd0314c0f7b2291e5b200ac8c7c3b92560405160405180910390a45050565b60006008600084815260200190815260200160002060009054906101000a900473ffffffffffffffffffffffffffffffffffffffff16905060006009549050600060648460008151811061161f5761161e6136aa565b5b602002602001015161163191906135bd565b9050600061163e826110f9565b90506001600960008282546116539190613392565b925050819055506116648484611f00565b61172683600a83600281111561167d5761167c61364c565b5b8154811061168e5761168d6136aa565b5b9060005260206000200180546116a390613511565b80601f01602080910402602001604051908101604052809291908181526020018280546116cf90613511565b801561171c5780601f106116f15761010080835404028352916020019161171c565b820191906000526020600020905b8154815290600101906020018083116116ff57829003601f168201915b5050505050611f1e565b7f8a269f26b688e110e9cbd887d163dab35cae678fa353a0292de532c0cac1ecdc818560405161175792919061306f565b60405180910390a1505050505050565b60008061177383610e3b565b90508073ffffffffffffffffffffffffffffffffffffffff168473ffffffffffffffffffffffffffffffffffffffff1614806117b557506117b4818561133a565b5b806117f357508373ffffffffffffffffffffffffffffffffffffffff166117db846108ab565b73ffffffffffffffffffffffffffffffffffffffff16145b91505092915050565b8273ffffffffffffffffffffffffffffffffffffffff1661181c82610e3b565b73ffffffffffffffffffffffffffffffffffffffff1614611872576040517f08c379a00000000000000000000000000000000000000000000000000000000081526004016118699061311a565b60405180910390fd5b600073ffffffffffffffffffffffffffffffffffffffff168273ffffffffffffffffffffffffffffffffffffffff1614156118e2576040517f08c379a00000000000000000000000000000000000000000000000000000000081526004016118d99061315a565b60405180910390fd5b6118ef8383836001611f92565b8273ffffffffffffffffffffffffffffffffffffffff1661190f82610e3b565b73ffffffffffffffffffffffffffffffffffffffff1614611965576040517f08c379a000000000000000000000000000000000000000000000000000000000815260040161195c9061311a565b60405180910390fd5b6004600082815260200190815260200160002060006101000a81549073ffffffffffffffffffffffffffffffffffffffff02191690556001600360008573ffffffffffffffffffffffffffffffffffffffff1673ffffffffffffffffffffffffffffffffffffffff168152602001908152602001600020600082825403925050819055506001600360008473ffffffffffffffffffffffffffffffffffffffff1673ffffffffffffffffffffffffffffffffffffffff16815260200190815260200160002060008282540192505081905550816002600083815260200190815260200160002060006101000a81548173ffffffffffffffffffffffffffffffffffffffff021916908373ffffffffffffffffffffffffffffffffffffffff160217905550808273ffffffffffffffffffffffffffffffffffffffff168473ffffffffffffffffffffffffffffffffffffffff167fddf252ad1be2c89b69c2b068fc378daa952ba7f163c4a11628f55a4df523b3ef60405160405180910390a4611af18383836001611f98565b505050565b611afe611507565b73ffffffffffffffffffffffffffffffffffffffff16611b1c610fdd565b73ffffffffffffffffffffffffffffffffffffffff1614611b72576040517f08c379a0000000000000000000000000000000000000000000000000000000008152600401611b69906131fa565b60405180910390fd5b565b60006002600083815260200190815260200160002060009054906101000a900473ffffffffffffffffffffffffffffffffffffffff169050919050565b6000600760009054906101000a900473ffffffffffffffffffffffffffffffffffffffff16905081600760006101000a81548173ffffffffffffffffffffffffffffffffffffffff021916908373ffffffffffffffffffffffffffffffffffffffff1602179055508173ffffffffffffffffffffffffffffffffffffffff168173ffffffffffffffffffffffffffffffffffffffff167f8be0079c531659141344cd1fd0a4f28419497f9722a3daafe3b4186f6b6457e060405160405180910390a35050565b8173ffffffffffffffffffffffffffffffffffffffff168373ffffffffffffffffffffffffffffffffffffffff161415611ce6576040517f08c379a0000000000000000000000000000000000000000000000000000000008152600401611cdd9061317a565b60405180910390fd5b80600560008573ffffffffffffffffffffffffffffffffffffffff1673ffffffffffffffffffffffffffffffffffffffff16815260200190815260200160002060008473ffffffffffffffffffffffffffffffffffffffff1673ffffffffffffffffffffffffffffffffffffffff16815260200190815260200160002060006101000a81548160ff0219169083151502179055508173ffffffffffffffffffffffffffffffffffffffff168373ffffffffffffffffffffffffffffffffffffffff167f17307eab39ab6107e8899845ad3d59bd9653f200f220920489ca2b5937696c3183604051611dd79190612fe6565b60405180910390a3505050565b611def8484846117fc565b611dfb84848484611f9e565b611e3a576040517f08c379a0000000000000000000000000000000000000000000000000000000008152600401611e31906130da565b60405180910390fd5b50505050565b606060405180602001604052806000815250905090565b6060611e62826114bc565b6000611e6c611e40565b90506000815111611e8c5760405180602001604052806000815250611eb7565b80611e9684612135565b604051602001611ea7929190612f02565b6040516020818303038152906040525b915050919050565b60008073ffffffffffffffffffffffffffffffffffffffff16611ee183611b74565b73ffffffffffffffffffffffffffffffffffffffff1614159050919050565b611f1a82826040518060200160405280600081525061220d565b5050565b611f2782611ebf565b611f66576040517f08c379a0000000000000000000000000000000000000000000000000000000008152600401611f5d906131ba565b60405180910390fd5b80600660008481526020019081526020016000209080519060200190611f8d92919061261e565b505050565b50505050565b50505050565b6000611fbf8473ffffffffffffffffffffffffffffffffffffffff16612268565b15612128578373ffffffffffffffffffffffffffffffffffffffff1663150b7a02611fe8611507565b8786866040518563ffffffff1660e01b815260040161200a9493929190612f7f565b602060405180830381600087803b15801561202457600080fd5b505af192505050801561205557506040513d601f19601f820116820180604052508101906120529190612a6a565b60015b6120d8573d8060008114612085576040519150601f19603f3d011682016040523d82523d6000602084013e61208a565b606091505b506000815114156120d0576040517f08c379a00000000000000000000000000000000000000000000000000000000081526004016120c7906130da565b60405180910390fd5b805181602001fd5b63150b7a0260e01b7bffffffffffffffffffffffffffffffffffffffffffffffffffffffff1916817bffffffffffffffffffffffffffffffffffffffffffffffffffffffff19161491505061212d565b600190505b949350505050565b6060600060016121448461228b565b01905060008167ffffffffffffffff811115612163576121626136d9565b5b6040519080825280601f01601f1916602001820160405280156121955781602001600182028036833780820191505090505b509050600082602001820190505b600115612202578080600190039150507f3031323334353637383961626364656600000000000000000000000000000000600a86061a8153600a85816121ec576121eb61361d565b5b04945060008514156121fd57612202565b6121a3565b819350505050919050565b61221783836123de565b6122246000848484611f9e565b612263576040517f08c379a000000000000000000000000000000000000000000000000000000000815260040161225a906130da565b60405180910390fd5b505050565b6000808273ffffffffffffffffffffffffffffffffffffffff163b119050919050565b600080600090507a184f03e93ff9f4daa797ed6e38ed64bf6a1f01000000000000000083106122e9577a184f03e93ff9f4daa797ed6e38ed64bf6a1f01000000000000000083816122df576122de61361d565b5b0492506040810190505b6d04ee2d6d415b85acef81000000008310612326576d04ee2d6d415b85acef8100000000838161231c5761231b61361d565b5b0492506020810190505b662386f26fc10000831061235557662386f26fc10000838161234b5761234a61361d565b5b0492506010810190505b6305f5e100831061237e576305f5e10083816123745761237361361d565b5b0492506008810190505b61271083106123a35761271083816123995761239861361d565b5b0492506004810190505b606483106123c657606483816123bc576123bb61361d565b5b0492506002810190505b600a83106123d5576001810190505b80915050919050565b600073ffffffffffffffffffffffffffffffffffffffff168273ffffffffffffffffffffffffffffffffffffffff16141561244e576040517f08c379a0000000000000000000000000000000000000000000000000000000008152600401612445906131da565b60405180910390fd5b61245781611ebf565b15612497576040517f08c379a000000000000000000000000000000000000000000000000000000000815260040161248e9061313a565b60405180910390fd5b6124a5600083836001611f92565b6124ae81611ebf565b156124ee576040517f08c379a00000000000000000000000000000000000000000000000000000000081526004016124e59061313a565b60405180910390fd5b6001600360008473ffffffffffffffffffffffffffffffffffffffff1673ffffffffffffffffffffffffffffffffffffffff16815260200190815260200160002060008282540192505081905550816002600083815260200190815260200160002060006101000a81548173ffffffffffffffffffffffffffffffffffffffff021916908373ffffffffffffffffffffffffffffffffffffffff160217905550808273ffffffffffffffffffffffffffffffffffffffff16600073ffffffffffffffffffffffffffffffffffffffff167fddf252ad1be2c89b69c2b068fc378daa952ba7f163c4a11628f55a4df523b3ef60405160405180910390a46125f8600083836001611f98565b5050565b6040518060600160405280600390602082028036833780820191505090505090565b82805461262a90613511565b90600052602060002090601f01602090048101928261264c5760008555612693565b82601f1061266557805160ff1916838001178555612693565b82800160010185558215612693579182015b82811115612692578251825591602001919060010190612677565b5b5090506126a091906126a4565b5090565b5b808211156126bd5760008160009055506001016126a5565b5090565b60006126d46126cf846132ba565b613295565b905080838252602082019050828560208602820111156126f7576126f661370d565b5b60005b85811015612727578161270d8882612823565b8452602084019350602083019250506001810190506126fa565b5050509392505050565b600061274461273f846132e6565b613295565b9050828152602081018484840111156127605761275f613712565b5b61276b8482856134cf565b509392505050565b60008135905061278281613add565b92915050565b600082601f83011261279d5761279c613708565b5b81356127ad8482602086016126c1565b91505092915050565b6000813590506127c581613af4565b92915050565b6000813590506127da81613b0b565b92915050565b6000815190506127ef81613b0b565b92915050565b600082601f83011261280a57612809613708565b5b813561281a848260208601612731565b91505092915050565b60008135905061283281613b22565b92915050565b60008151905061284781613b22565b92915050565b6000602082840312156128635761286261371c565b5b600061287184828501612773565b91505092915050565b600080604083850312156128915761289061371c565b5b600061289f85828601612773565b92505060206128b085828601612773565b9150509250929050565b6000806000606084860312156128d3576128d261371c565b5b60006128e186828701612773565b93505060206128f286828701612773565b925050604061290386828701612823565b9150509250925092565b600080600080608085870312156129275761292661371c565b5b600061293587828801612773565b945050602061294687828801612773565b935050604061295787828801612823565b925050606085013567ffffffffffffffff81111561297857612977613717565b5b612984878288016127f5565b91505092959194509250565b600080604083850312156129a7576129a661371c565b5b60006129b585828601612773565b92505060206129c6858286016127b6565b9150509250929050565b600080604083850312156129e7576129e661371c565b5b60006129f585828601612773565b9250506020612a0685828601612823565b9150509250929050565b600060208284031215612a2657612a2561371c565b5b6000612a34848285016127b6565b91505092915050565b600060208284031215612a5357612a5261371c565b5b6000612a61848285016127cb565b91505092915050565b600060208284031215612a8057612a7f61371c565b5b6000612a8e848285016127e0565b91505092915050565b600060208284031215612aad57612aac61371c565b5b6000612abb84828501612823565b91505092915050565b600060208284031215612ada57612ad961371c565b5b6000612ae884828501612838565b91505092915050565b60008060408385031215612b0857612b0761371c565b5b6000612b1685828601612823565b925050602083013567ffffffffffffffff811115612b3757612b36613717565b5b612b4385828601612788565b9150509250929050565b6000612b598383612ec6565b60208301905092915050565b612b6e816133e8565b82525050565b612b7d81613321565b612b87818461334f565b9250612b9282613317565b8060005b83811015612bc3578151612baa8782612b4d565b9650612bb583613342565b925050600181019050612b96565b505050505050565b612bd4816133fa565b82525050565b612be381613406565b82525050565b6000612bf48261332c565b612bfe818561335a565b9350612c0e8185602086016134de565b612c1781613721565b840191505092915050565b612c2b816134ab565b82525050565b6000612c3c82613337565b612c468185613376565b9350612c568185602086016134de565b612c5f81613721565b840191505092915050565b6000612c7582613337565b612c7f8185613387565b9350612c8f8185602086016134de565b80840191505092915050565b6000612ca8602d83613376565b9150612cb382613732565b604082019050919050565b6000612ccb603283613376565b9150612cd682613781565b604082019050919050565b6000612cee602683613376565b9150612cf9826137d0565b604082019050919050565b6000612d11602583613376565b9150612d1c8261381f565b604082019050919050565b6000612d34601c83613376565b9150612d3f8261386e565b602082019050919050565b6000612d57602483613376565b9150612d6282613897565b604082019050919050565b6000612d7a601983613376565b9150612d85826138e6565b602082019050919050565b6000612d9d602983613376565b9150612da88261390f565b604082019050919050565b6000612dc0602e83613376565b9150612dcb8261395e565b604082019050919050565b6000612de3602083613376565b9150612dee826139ad565b602082019050919050565b6000612e06602083613376565b9150612e11826139d6565b602082019050919050565b6000612e29601883613376565b9150612e34826139ff565b602082019050919050565b6000612e4c602183613376565b9150612e5782613a28565b604082019050919050565b6000612e6f60008361336b565b9150612e7a82613a77565b600082019050919050565b6000612e92603d83613376565b9150612e9d82613a7a565b604082019050919050565b612eb18161344f565b82525050565b612ec0816134bd565b82525050565b612ecf8161347d565b82525050565b612ede8161347d565b82525050565b612eed81613487565b82525050565b612efc81613497565b82525050565b6000612f0e8285612c6a565b9150612f1a8284612c6a565b91508190509392505050565b6000612f3182612e62565b9150819050919050565b6000602082019050612f506000830184612b65565b92915050565b6000604082019050612f6b6000830185612b65565b612f786020830184612b65565b9392505050565b6000608082019050612f946000830187612b65565b612fa16020830186612b65565b612fae6040830185612ed5565b8181036060830152612fc08184612be9565b905095945050505050565b6000606082019050612fe06000830184612b74565b92915050565b6000602082019050612ffb6000830184612bcb565b92915050565b600060a0820190506130166000830188612bda565b6130236020830187612ef3565b6130306040830186612ea8565b61303d6060830185612ee4565b61304a6080830184612eb7565b9695505050505050565b60006020820190506130696000830184612c22565b92915050565b60006040820190506130846000830185612c22565b6130916020830184612b65565b9392505050565b600060208201905081810360008301526130b28184612c31565b905092915050565b600060208201905081810360008301526130d381612c9b565b9050919050565b600060208201905081810360008301526130f381612cbe565b9050919050565b6000602082019050818103600083015261311381612ce1565b9050919050565b6000602082019050818103600083015261313381612d04565b9050919050565b6000602082019050818103600083015261315381612d27565b9050919050565b6000602082019050818103600083015261317381612d4a565b9050919050565b6000602082019050818103600083015261319381612d6d565b9050919050565b600060208201905081810360008301526131b381612d90565b9050919050565b600060208201905081810360008301526131d381612db3565b9050919050565b600060208201905081810360008301526131f381612dd6565b9050919050565b6000602082019050818103600083015261321381612df9565b9050919050565b6000602082019050818103600083015261323381612e1c565b9050919050565b6000602082019050818103600083015261325381612e3f565b9050919050565b6000602082019050818103600083015261327381612e85565b9050919050565b600060208201905061328f6000830184612ed5565b92915050565b600061329f6132b0565b90506132ab8282613543565b919050565b6000604051905090565b600067ffffffffffffffff8211156132d5576132d46136d9565b5b602082029050602081019050919050565b600067ffffffffffffffff821115613301576133006136d9565b5b61330a82613721565b9050602081019050919050565b6000819050919050565b600060039050919050565b600081519050919050565b600081519050919050565b6000602082019050919050565b600081905092915050565b600082825260208201905092915050565b600081905092915050565b600082825260208201905092915050565b600081905092915050565b600061339d8261347d565b91506133a88361347d565b9250827fffffffffffffffffffffffffffffffffffffffffffffffffffffffffffffffff038211156133dd576133dc6135ee565b5b828201905092915050565b60006133f38261345d565b9050919050565b60008115159050919050565b6000819050919050565b60007fffffffff0000000000000000000000000000000000000000000000000000000082169050919050565b600081905061344a82613ac9565b919050565b600061ffff82169050919050565b600073ffffffffffffffffffffffffffffffffffffffff82169050919050565b6000819050919050565b600063ffffffff82169050919050565b600067ffffffffffffffff82169050919050565b60006134b68261343c565b9050919050565b60006134c88261344f565b9050919050565b82818337600083830152505050565b60005b838110156134fc5780820151818401526020810190506134e1565b8381111561350b576000848401525b50505050565b6000600282049050600182168061352957607f821691505b6020821081141561353d5761353c61367b565b5b50919050565b61354c82613721565b810181811067ffffffffffffffff8211171561356b5761356a6136d9565b5b80604052505050565b600061357f8261347d565b91507fffffffffffffffffffffffffffffffffffffffffffffffffffffffffffffffff8214156135b2576135b16135ee565b5b600182019050919050565b60006135c88261347d565b91506135d38361347d565b9250826135e3576135e261361d565b5b828206905092915050565b7f4e487b7100000000000000000000000000000000000000000000000000000000600052601160045260246000fd5b7f4e487b7100000000000000000000000000000000000000000000000000000000600052601260045260246000fd5b7f4e487b7100000000000000000000000000000000000000000000000000000000600052602160045260246000fd5b7f4e487b7100000000000000000000000000000000000000000000000000000000600052602260045260246000fd5b7f4e487b7100000000000000000000000000000000000000000000000000000000600052603260045260246000fd5b7f4e487b7100000000000000000000000000000000000000000000000000000000600052604160045260246000fd5b600080fd5b600080fd5b600080fd5b600080fd5b600080fd5b6000601f19601f8301169050919050565b7f4552433732313a2063616c6c6572206973206e6f7420746f6b656e206f776e6560008201527f72206f7220617070726f76656400000000000000000000000000000000000000602082015250565b7f4552433732313a207472616e7366657220746f206e6f6e20455243373231526560008201527f63656976657220696d706c656d656e7465720000000000000000000000000000602082015250565b7f4f776e61626c653a206e6577206f776e657220697320746865207a65726f206160008201527f6464726573730000000000000000000000000000000000000000000000000000602082015250565b7f4552433732313a207472616e736665722066726f6d20696e636f72726563742060008201527f6f776e6572000000000000000000000000000000000000000000000000000000602082015250565b7f4552433732313a20746f6b656e20616c7265616479206d696e74656400000000600082015250565b7f4552433732313a207472616e7366657220746f20746865207a65726f2061646460008201527f7265737300000000000000000000000000000000000000000000000000000000602082015250565b7f4552433732313a20617070726f766520746f2063616c6c657200000000000000600082015250565b7f4552433732313a2061646472657373207a65726f206973206e6f74206120766160008201527f6c6964206f776e65720000000000000000000000000000000000000000000000602082015250565b7f45524337323155524953746f726167653a2055524920736574206f66206e6f6e60008201527f6578697374656e7420746f6b656e000000000000000000000000000000000000602082015250565b7f4552433732313a206d696e7420746f20746865207a65726f2061646472657373600082015250565b7f4f776e61626c653a2063616c6c6572206973206e6f7420746865206f776e6572600082015250565b7f4552433732313a20696e76616c696420746f6b656e2049440000000000000000600082015250565b7f4552433732313a20617070726f76616c20746f2063757272656e74206f776e6560008201527f7200000000000000000000000000000000000000000000000000000000000000602082015250565b50565b7f4552433732313a20617070726f76652063616c6c6572206973206e6f7420746f60008201527f6b656e206f776e6572206f7220617070726f76656420666f7220616c6c000000602082015250565b60038110613ada57613ad961364c565b5b50565b613ae6816133e8565b8114613af157600080fd5b50565b613afd816133fa565b8114613b0857600080fd5b50565b613b1481613410565b8114613b1f57600080fd5b50565b613b2b8161347d565b8114613b3657600080fd5b5056fea2646970667358221220797da24355762ef89772b12207f198b50b6ed45548e2be498fc73f3853f5415f64736f6c63430008070033",
  "devdoc": {
    "kind": "dev",
    "methods": {
      "approve(address,uint256)": {
        "details": "See {IERC721-approve}."
      },
      "balanceOf(address)": {
        "details": "See {IERC721-balanceOf}."
      },
      "getApproved(uint256)": {
        "details": "See {IERC721-getApproved}."
      },
      "isApprovedForAll(address,address)": {
        "details": "See {IERC721-isApprovedForAll}."
      },
      "name()": {
        "details": "See {IERC721Metadata-name}."
      },
      "owner()": {
        "details": "Returns the address of the current owner."
      },
      "ownerOf(uint256)": {
        "details": "See {IERC721-ownerOf}."
      },
      "renounceOwnership()": {
        "details": "Leaves the contract without owner. It will not be possible to call `onlyOwner` functions anymore. Can only be called by the current owner. NOTE: Renouncing ownership will leave the contract without an owner, thereby removing any functionality that is only available to the owner."
      },
      "safeTransferFrom(address,address,uint256)": {
        "details": "See {IERC721-safeTransferFrom}."
      },
      "safeTransferFrom(address,address,uint256,bytes)": {
        "details": "See {IERC721-safeTransferFrom}."
      },
      "setApprovalForAll(address,bool)": {
        "details": "See {IERC721-setApprovalForAll}."
      },
      "supportsInterface(bytes4)": {
        "details": "See {IERC165-supportsInterface}."
      },
      "symbol()": {
        "details": "See {IERC721Metadata-symbol}."
      },
      "tokenURI(uint256)": {
        "details": "See {IERC721Metadata-tokenURI}."
      },
      "transferFrom(address,address,uint256)": {
        "details": "See {IERC721-transferFrom}."
      },
      "transferOwnership(address)": {
        "details": "Transfers ownership of the contract to a new account (`newOwner`). Can only be called by the current owner."
      }
    },
    "version": 1
  },
  "userdoc": {
    "kind": "user",
    "methods": {},
    "version": 1
  },
  "storageLayout": {
    "storage": [
      {
        "astId": 1296,
        "contract": "contracts/RandomIpfsNft.sol:RandomIpfsNft",
        "label": "_name",
        "offset": 0,
        "slot": "0",
        "type": "t_string_storage"
      },
      {
        "astId": 1298,
        "contract": "contracts/RandomIpfsNft.sol:RandomIpfsNft",
        "label": "_symbol",
        "offset": 0,
        "slot": "1",
        "type": "t_string_storage"
      },
      {
        "astId": 1302,
        "contract": "contracts/RandomIpfsNft.sol:RandomIpfsNft",
        "label": "_owners",
        "offset": 0,
        "slot": "2",
        "type": "t_mapping(t_uint256,t_address)"
      },
      {
        "astId": 1306,
        "contract": "contracts/RandomIpfsNft.sol:RandomIpfsNft",
        "label": "_balances",
        "offset": 0,
        "slot": "3",
        "type": "t_mapping(t_address,t_uint256)"
      },
      {
        "astId": 1310,
        "contract": "contracts/RandomIpfsNft.sol:RandomIpfsNft",
        "label": "_tokenApprovals",
        "offset": 0,
        "slot": "4",
        "type": "t_mapping(t_uint256,t_address)"
      },
      {
        "astId": 1316,
        "contract": "contracts/RandomIpfsNft.sol:RandomIpfsNft",
        "label": "_operatorApprovals",
        "offset": 0,
        "slot": "5",
        "type": "t_mapping(t_address,t_mapping(t_address,t_bool))"
      },
      {
        "astId": 2344,
        "contract": "contracts/RandomIpfsNft.sol:RandomIpfsNft",
        "label": "_tokenURIs",
        "offset": 0,
        "slot": "6",
        "type": "t_mapping(t_uint256,t_string_storage)"
      },
      {
        "astId": 1165,
        "contract": "contracts/RandomIpfsNft.sol:RandomIpfsNft",
        "label": "_owner",
        "offset": 0,
        "slot": "7",
        "type": "t_address"
      },
      {
        "astId": 4363,
        "contract": "contracts/RandomIpfsNft.sol:RandomIpfsNft",
        "label": "s_requestIdToSender",
        "offset": 0,
        "slot": "8",
        "type": "t_mapping(t_uint256,t_address)"
      },
      {
        "astId": 4365,
        "contract": "contracts/RandomIpfsNft.sol:RandomIpfsNft",
        "label": "s_tokenCounter",
        "offset": 0,
        "slot": "9",
        "type": "t_uint256"
      },
      {
        "astId": 4371,
        "contract": "contracts/RandomIpfsNft.sol:RandomIpfsNft",
        "label": "s_tokenUris",
        "offset": 0,
        "slot": "10",
        "type": "t_array(t_string_storage)dyn_storage"
      },
      {
        "astId": 4375,
        "contract": "contracts/RandomIpfsNft.sol:RandomIpfsNft",
        "label": "s_initialized",
        "offset": 0,
        "slot": "11",
        "type": "t_bool"
      },
      {
        "astId": 4377,
        "contract": "contracts/RandomIpfsNft.sol:RandomIpfsNft",
        "label": "_transactionFailed",
        "offset": 1,
        "slot": "11",
        "type": "t_bool"
      }
    ],
    "types": {
      "t_address": {
        "encoding": "inplace",
        "label": "address",
        "numberOfBytes": "20"
      },
      "t_array(t_string_storage)dyn_storage": {
        "base": "t_string_storage",
        "encoding": "dynamic_array",
        "label": "string[]",
        "numberOfBytes": "32"
      },
      "t_bool": {
        "encoding": "inplace",
        "label": "bool",
        "numberOfBytes": "1"
      },
      "t_mapping(t_address,t_bool)": {
        "encoding": "mapping",
        "key": "t_address",
        "label": "mapping(address => bool)",
        "numberOfBytes": "32",
        "value": "t_bool"
      },
      "t_mapping(t_address,t_mapping(t_address,t_bool))": {
        "encoding": "mapping",
        "key": "t_address",
        "label": "mapping(address => mapping(address => bool))",
        "numberOfBytes": "32",
        "value": "t_mapping(t_address,t_bool)"
      },
      "t_mapping(t_address,t_uint256)": {
        "encoding": "mapping",
        "key": "t_address",
        "label": "mapping(address => uint256)",
        "numberOfBytes": "32",
        "value": "t_uint256"
      },
      "t_mapping(t_uint256,t_address)": {
        "encoding": "mapping",
        "key": "t_uint256",
        "label": "mapping(uint256 => address)",
        "numberOfBytes": "32",
        "value": "t_address"
      },
      "t_mapping(t_uint256,t_string_storage)": {
        "encoding": "mapping",
        "key": "t_uint256",
        "label": "mapping(uint256 => string)",
        "numberOfBytes": "32",
        "value": "t_string_storage"
      },
      "t_string_storage": {
        "encoding": "bytes",
        "label": "string",
        "numberOfBytes": "32"
      },
      "t_uint256": {
        "encoding": "inplace",
        "label": "uint256",
        "numberOfBytes": "32"
      }
    }
  }
}